:020000040800F2
:10000000E826002059020008E73B00086B32000890
:10001000E53B0008BD0C0008AD4F000800000000E3
:100020000000000000000000000000009D0100082A
:10003000550E000800000000F101000813420008FE
:1000400073020008730200087302000873020008BC
:1000500073020008730200087302000873020008AC
:10006000730200087302000873020008730200089C
:10007000730200087302000873020008730200088C
:10008000730200087302000873020008730200087C
:10009000A14F0008730200087302000873020008F1
:1000A000730200087302000873020008730200085C
:1000B0003D43000873020008730200087302000841
:1000C000730200087302000873020008730200083C
:1000D000730200087302000873020008730200082C
:1000E000730200087302000873020008730200081C
:1000F000730200087302000873020008730200080C
:100100000000000000000000000000007302000872
:1001100073020008730200087302000873020008EB
:1001200073020008730200087302000873020008DB
:1001300073020008730200080000000000000000C5
:100140007302000873020008730200080000000038
:10015000000000000000000000000000000000009F
:100160000000000000000000730200087302000895
:100170007302000800000000000000000000000002
:100180000000000073020008DFF80CD000F0F6FB5E
:1001900000480047895D0008E82600202B4B1968BD
:1001A0000868B0E8F04F80F30988BFF36F8F4FF015
:1001B000000080F3118870470000000006480068C6
:1001C000006880F3088862B661B6BFF34F8FBFF353
:1001D0006F8F00DF00BF00BF08ED00E0DFF80C000C
:1001E000016841F470010160704700BF88ED00E0D4
:1001F000EFF30980BFF36F8F144B1A681EF0100FD6
:1002000008BF20ED108A20E9F04F106008B44FF0CD
:10021000500080F31188BFF34F8FBFF36F8F06F04C
:100220004BF94FF0000080F3118808BC196808688A
:10023000B0E8F04F1EF0100F08BFB0EC108A80F34A
:100240000988BFF36F8F704700BF00BFB400002064
:10025000EFF30580704700000648804706480047D6
:10026000FEE7FEE7FEE7FEE7FEE7FEE7FEE7FEE766
:10027000FEE7FEE7D542000889010008202A04DBDA
:10028000203A21FA02F00021704721FA02F3D0400F
:10029000C2F12002914008431946704740EA010329
:1002A0009B0703D009E008C9121F08C0042AFAD22C
:1002B00003E011F8013B00F8013B521EF9D27047F0
:1002C000D2B201E000F8012B491EFBD27047002298
:1002D000F6E710B513460A4604461946FFF7F0FF45
:1002E000204610BD421C10F8011B0029FBD1801ACA
:1002F00070472DE9FE4F804681EA0300C00F0C468F
:10030000009021F0004123F00045B8EB0200A94124
:1003100005D24046214690461C460B46024623F035
:100320000040104347D0270DC7F30A00C3F30A511A
:100330000290401A019040286BDAC3F3130040F496
:10034000801B0098924620B10023D2EB030A63EB96
:100350000B0B01985946C0F14002504600F0D8F905
:1003600006460D4650465946019A00F0E0F910EB5A
:1003700008006141002487EA115284EAE7731A43B6
:1003800040D0009A62B3019A012A4FEA075215DC65
:10039000001B61EB02014FF0004202EA0752CDE977
:1003A0000042001C41F5801132462B4600F017FA3E
:1003B00003B0BDE8F08F40462146F9E7001B61EB32
:1003C0000201001C41F5801300185B412018A2F5C2
:1003D000001747EB030140EAD570B6196D4111E0F3
:1003E0006D084FEA360645EAC0754FEA0752001B12
:1003F00061EB0201001C41F5801149084FEA300011
:100400000019514132462B4603B0BDE8F04F00F0D1
:10041000D7B90098012240000023D0EB020263EB21
:10042000E073009821464FEAE074B8EB000061EBFE
:100430000401E9E783F000435BE781F0004158E7FE
:100440002DE9FE4F81EA030404F0004421F000414D
:1004500000944FF0000B23F0004350EA01045ED0FB
:1004600052EA03045BD0C3F30A54C1F30A552C4487
:10047000A4F2F3340194A0FB0254C1F3130141F43C
:100480008011C3F3130343F4801301FB024400FB08
:10049000034E840A970A44EA815447EA8357A4FB2F
:1004A000076802958D0A05FB07854FEA932C04FB2C
:1004B0000C542705029D4FEA065847EA1637B5EB5C
:1004C00008056EEB070C870E920E47EA811742EA89
:1004D0008312A7FB0201B6EB0B0164EB00042B0DAA
:1004E00043EA0C335E1844EB1C50DA465146E7FBF6
:1004F0000201C5F313044FEA0B3343EA14534FEAE6
:100500000432019C43EA0603A4F10C040294009C0B
:10051000CDE900B400F063F903B0BDE8F08F00202E
:100520000146F9E72DE9F04D81EA030404F0004BA0
:1005300021F0004514464FF0000A23F0004150EA34
:10054000050220D054EA01021DD0C5F30A57024625
:10055000C5F31303C1F31300C1F30A5640F4801529
:1005600043F48013A7EB0608101BD64608F2FD38AB
:1005700073EB050002D308F1010801E092185B411A
:10058000B8F1000F03DA00200146BDE8F08D00202D
:100590004FF48011064684460EE0171B73EB0507E7
:1005A00005D3121B63EB050306434CEA010C490813
:1005B0004FEA300092185B4150EA0107EDD152EA50
:1005C000030012D082EA040083EA0501084305D043
:1005D000101BAB4106D20122002306E000224FF09F
:1005E000004302E06FF0010253101AEB06004CEBDF
:1005F000085110EB0A0041EB0B01BDE8F04D00F093
:10060000DFB80EB5C10F80EAE0700844CA070021C8
:1006100040F233438DE80E000A460B4600F0DFF847
:1006200003B000BD00F0004230F000400AD0C10D20
:1006300001F56071C0F3160042EA0151C20840079B
:100640001143704700200146704701F0004330B469
:1006500021F0004150EA010206D00A0DA2F56072B5
:10066000C1F31301002A02DC30BC00207047440FA4
:1006700044EAC104C100E01830BC00EBC25000F0F5
:1006800068B830B50B46014600202022012409E05D
:1006900021FA02F59D4205D303FA02F5491B04FA3B
:1006A00002F52844151EA2F10102F1DC30BD2DE94E
:1006B000F05F0546002092469B46884606468146E6
:1006C00040241BE02846414647462246FFF7D6FD18
:1006D00053465A46C01A914110D311461846224635
:1006E00000F016F82D1A67EB01084F46224601204C
:1006F000002100F00DF817EB00094E41201EA4F177
:100700000104DFDC484631462A464346BDE8F09FF7
:10071000202A04DB203A00FA02F1002070479140C1
:10072000C2F1200320FA03F3194390407047202AB6
:1007300006DBCB17203A41FA02F043EAE07306E009
:1007400041FA02F3D040C2F1200291400843194619
:1007500070470029A8BF7047401C490008BF20F01F
:100760000100704710B4B0FA80FC00FA0CF050EAB7
:10077000010404BF10BC704749B1CCF1200421FA38
:1007800004F411FA0CF118BF012121430843A3EB33
:100790000C01CB1D4FEA00614FEA102042BF002040
:1007A00010BC704700EBC35010440029A4BF10BC1C
:1007B0007047401C490008BF20F0010010BC704782
:1007C00010B5141E73F1000408DA401C41F1000159
:1007D00092185B411A4301D120F0010010BD2DE9B0
:1007E000F04D92469B4611B1B1FA81F202E0B0FAA7
:1007F00080F220329046FFF78BFF04460F4640EA16
:100800000A0041EA0B0153465A46084313D01146E9
:1008100053EA010019D0C8F140025046FFF72EFDFF
:1008200005460E46504659464246FFF771FF0843BB
:1008300005D0012004E020463946BDE8F08D0020B7
:10084000054346EAE0762C4337430A986305E40AF9
:10085000A0EB08000022FD0A44EA47540A3002D502
:1008600000200146E9E7010510196941DDE9084565
:1008700000196941BDE8F04DA2E72DE9F04D0023D4
:100880001A461B1A8A4103DB00200146BDE8F08DA1
:10089000C1F30A52C1F3130141F480154FF0000B6C
:1008A000D10702D100186D41521E0027044640F2C4
:1008B000FF11384601EB620A3E46804602460020A0
:1008C0004FF48011FFF7DAFCC2197141BB1846EBF7
:1008D0000100B4EB030C75EB000C04D3E41A65EBD8
:1008E000000517460E46241908F101006D418046A7
:1008F0003428E3DDF91946EB0600091BA84103D2B1
:100900004FF0FF32134601E0002213461BEB0700B5
:1009100046EB0A51BDE8F04DFFF752BFC1F30A5252
:10092000C1F3130140F2FF3341F480119A4202DA1D
:1009300000200146704740F233439A42A2F233420C
:1009400002DC5242FFF79ABCFFF7E2BE30B5041E4C
:1009500071F1000404DB4FF00044404264EB0101FC
:10096000141E73F1000405DB1C464FF00043524295
:1009700063EB0403994208BF904230BD064C074D1B
:1009800006E0E06840F0010394E80700984710345F
:10099000AC42F6D3FFF7FCFB346900085469000849
:1009A00070B58C1810F8015B15F0070301D110F831
:1009B000013B2A1106D110F8012B03E010F8016B5E
:1009C00001F8016B5B1EF9D12B0705D40023521EE1
:1009D0000DD401F8013BFAE710F8013BCB1A921C49
:1009E00003E013F8015B01F8015B521EF9D5A14247
:1009F000D8D3002070BD00002DED0A8B9EB00020E2
:100A000019901A9064216846FFF761FC0127DFF80E
:100A1000B09100254FF480789FED6A8B9FED6BBB02
:100A20006C4C9FED6DCB4146484600F0E9FB6420DD
:100A300005F0DCF919A800F0F5F8BDF86400608055
:100A4000BDF86600A080BDF868002080B4F90200FF
:100A5000FFF7D7FD53EC182BFFF7F2FC41EC1A0B14
:100A600084ED08ABB4F90400FFF7CBFD53EC182B71
:100A7000FFF7E6FC41EC190B84ED0A9BB4F900008A
:100A8000FFF7BFFD53EC182BFFF7DAFCC4E90601B2
:100A900053EC192B51EC190BFFF7D2FC41EC190B5D
:100AA00053EC1A2B51EC1A0BFFF7CAFC53EC192B21
:100AB000FFF71FFC41EC100B04F012FC53EC102B61
:100AC00094ED060B51EC100BFFF72CFD41EC100BD5
:100AD00004F09AFA53EC1B2B51EC100BFFF7B0FC0F
:100AE000FFF7B3FDA0603EA1684604F061FA6846D6
:100AF000FFF7F8FB81B2684600F004F93022642168
:100B00006846FFF7DDFBA068FFF78CFD41EC100B9A
:100B100038A153EC102B684604F04AFA6846FFF7F8
:100B2000E1FB81B2684600F0EDF8302264216846AE
:100B3000FFF7C6FB1BA800F097F89DED1B0A84ED9C
:100B4000040A9DED1C0A84ED050A9DED1D0A84ED45
:100B5000030A0FB1A668002794ED040A10EE100AEC
:100B6000FFF760FD53EC1C2BFFF76AFC41EC190BFF
:100B70003046FFF757FD53EC192BFFF75BFCFFF7EF
:100B800064FD0646FFF74EFD41EC100B1FA153EC30
:100B9000102B684604F00CFA6846FFF7A3FB81B2FD
:100BA000684600F0AFF8302264216846FFF788FB02
:100BB0006D1CEDB2282D7FF636AF0025012732E7F8
:100BC00000100048000000000000103F295C8FC2A8
:100BD000F5A84C40500000202D431CEBE2361A3F94
:100BE0002D2D2D2D2D2D2D2D2D2D2D2D2D200D0A85
:100BF000000000006163656C205A20616E676C65BF
:100C0000203D202566200D0A000000006779726FE4
:100C1000205A20616E676C65203D202566200D0AF4
:100C20000000000003490968896A002900D00847CC
:100C3000704700006002002070B5094D012468680B
:100C4000804733280AD1074C40F6470025602968C1
:100C5000884721689020096A88470024204670BD93
:100C6000340200206002002003490968896A0029D3
:100C700000D00847704700006402002070B50D4C9A
:100C8000012560688047D42803D060688047D52854
:100C90000ED1094D41F23F002C6021688847296838
:100CA0000920096A88472868416A1020884700257A
:100CB000284670BD0802002064020020FEE70020E4
:100CC000704700207047000010B500220449054815
:100CD00003F062FC0449034803F058FC002010BDF7
:100CE0006C10002098020020840C002010B50146F2
:100CF000034803F04BFC024803F02CFC002010BD1D
:100D000098020020094A10B5D2F81822D2F814220D
:100D10000AB1012010BD0A460146044803F03CFC1C
:100D2000BDE81040014803F077BC000098020020A5
:100D3000104800B5416987B041F400114161406934
:100D4000694600F400100590302000900A48019098
:100D50000320039000200290084800F08DF9002243
:100D600011460A2000F06EFD0A2000F05FFD07B07A
:100D700000BD0000001002400000111000100048EB
:100D800070B5194886B0416941F40011416141696B
:100D900001F400110591416941F40011416140697C
:100DA000002400F4001005900420CDE900040F4E4B
:100DB000032569463046CDE9024500F05DF9002281
:100DC0001146082000F03EFD082000F02FFD3020E5
:100DD000CDE9000469463046CDE9024500F04CF902
:100DE00002F09EFB06B070BD0010024000100048EB
:100DF0001FB50A4601460020084C8DF80C0001235F
:100E0000A46803A88DE81900054800F0D5FA08B1D8
:100E100002F07CFB9DF80C0004B010BD68020020BD
:100E2000982200201FB51346084C0A468DF80C3056
:100E30000146A468012303A88DE81900044800F0C6
:100E400073FB002801D002F061FB1FBD6802002087
:100E50009822002070470000F0B5184C87B06069F8
:100E600040F400106061606901AA00F40010059070
:100E70000820009001200025032682E86100104F21
:100E80006946384600F0F8F801220821384600F09B
:100E9000BBF9606940F4001060616069CDE90256F9
:100EA00000F4001005900620CDE90005694638469B
:100EB00000F0E2F803F044F907B0F0BD0010024082
:100EC000001000482DE9F04114460546012A02D9D8
:100ED00041F0C00601E041F080060D4F00220821DC
:100EE000384600F091F9304603F074F906E000202E
:100EF00003F070F9641E05F8010BA4B2002CF6D1C2
:100F00003846BDE8F0410122082100F07DB900001B
:100F1000001000482DE9F041144605460E46012A0E
:100F200001D941F040060C4F00220821384600F05C
:100F30006BF9304603F04EF905E0287803F04AF9E2
:100F4000641EA4B26D1C002CF7D13846BDE8F041F8
:100F50000122082100F058B9001000482DE9F04F97
:100F6000002301270F24DFF8F8A073E007FA03F647
:100F700016EA01026DD005684FEA43084FF0030CF2
:100F80000CFA08FC25EA0C050560DD0800EB850875
:100F9000C346D8F820905D074FEAD56804FA08F5F3
:100FA00029EA0509CBF82090856825EA0C058560BB
:100FB0004568B5434560C56825EA0C05C56023F062
:100FC000030606EB0A05D5F808C09E07360F04FA9B
:100FD00006F909EA0C08B0F1904F06D0DFF884C09A
:100FE000604505D14FF0010C19E04FF0000C16E000
:100FF000DFF874C0604502D14FF0020C0FE0DFF85B
:101000006CC0604502D14FF0030C08E0DFF860C00F
:10101000604502D14FF0040C01E04FF0050C0CFAD2
:1010200006FCC44515D1D5F808C02CEA090CC5F852
:1010300008C0104E356895433560361D35689543B8
:101040003560351D2E6896432E602D1D2E68964303
:101050002E605B1C31FA03F288D1BDE8F08F0000EE
:10106000000001400004004800080048000C00484F
:1010700000100048000401402DE9F84FDFF864B18A
:1010800000234FF0010C4FF0030A4FF00F090BF152
:10109000040EA0E00CFA03F6324072D04C68022C29
:1010A00001D0122C0ED1DC0800EB8408D8F82040C7
:1010B0005D07EF0E09FA07F5AC430D69BD40254306
:1010C000C8F8205007685D0091F804800AFA05F41A
:1010D00008F00308A74308FA05F848EA0708C0F82B
:1010E00000804F68012F05D0022F03D0112F01D0AF
:1010F000122F11D18768D1F80C80A74308FA05F8A0
:1011000048EA0708C0F808804768B7430E79C6F375
:1011100000169E403E434660C668A6438C68AC40BD
:101120003443C4604C68E40054D52F4CA56945F0A5
:101130000105A561A46923F0030504F001040094EE
:101140002A4C2E19B4689D072F0F09FA07F5AC43F6
:10115000B0F1904F04D0264DA84203D1012512E0F2
:10116000002510E0234DA84201D102250BE0224DBD
:10117000A84201D1032506E0204DA84202D1042552
:1011800001E027E00525BD402543B560DBF80040C0
:101190005D464E689443F60300D514432C60DEF898
:1011A000004075464E689443B60300D514432C6046
:1011B0000C4D08352C684E689443F60200D5144354
:1011C0002C60084D0C352C684E689443B60200D54F
:1011D00014432C605B1C0A6832FA03F47FF45AAFA4
:1011E000BDE8F88F000401400010024000000140FB
:1011F0000004004800080048000C004800100048A7
:1012000042694A40426170470AB181617047816218
:10121000704700000148806870470000800000208F
:1012200090F84120202A24D190F84020012A20D093
:10123000012280F84020242280F8412002681368AF
:1012400023F0010313600268136823F480531360D2
:10125000026813680B43136001680A6842F00102D8
:101260000A60202180F84110002180F840100846D3
:1012700070470220704790F84120202A22D190F830
:101280004020012A1ED0012280F84020242280F82C
:1012900041200268136823F0010313600268136899
:1012A00023F4706343EA0121116001680A6842F087
:1012B00001020A60202180F84110002180F84010CE
:1012C000084670470220704710B5040013D0242050
:1012D00084F841002068016821F001010160204686
:1012E00000F0D6F90020606484F8410044F8300F23
:1012F000A074207410BD012010BD90F8410070470B
:1013000070B5040004D094F84100002510B106E047
:10131000012070BD84F84050204600F0CDF9242013
:1013200084F841002068016821F0010101606068D3
:10133000216820F0706008612068816821F4004114
:101340008160E0680128A06807D040F4044021686B
:101350008860E068022803D006E040F40040F6E729
:1013600021684FF40060486020684168114A1143C9
:1013700041602068C16821F40041C160D4E90401E2
:101380000843A16940EA01202168C860D4E9070147
:101390000843216808602068016841F0010101608C
:1013A0006564202084F84100256384F842500020C1
:1013B00070BD0000008000022DE9FF4F83B004469D
:1013C000DDE9108790F84100DDF848909A46934691
:1013D000202874D15FEA080072D0002F70D094F8F2
:1013E000400001286BD0012084F84000FFF712FF75
:1013F0000646012200901923D103204602F00CF882
:10140000002874D1222084F84100402084F8420052
:1014100000256564C4F8248067856563CDE900967E
:1014200053465A462046049901F070FF28B1606C7B
:1014300084F8405004285ED059E0618D3848FF2779
:101440004FF080784FF0007AFF2904D927853A467B
:101450004346009005E0618D2185009094F8282096
:1014600053462046049901F0C1FF4B460022042157
:101470002046009601F0D0FFC8BB2068416A606A30
:10148000421C62620170208D401E0004000C208509
:10149000618DA1F1010161851DD1608DD8B14B46EF
:1014A000002280212046009601F0B6FFF8B9608D39
:1014B000FF2806D927853A464346009507E02CE0E9
:1014C00019E0608D2085009594F828205346204629
:1014D000049901F08BFF608D0028C6D13246494641
:1014E000204601F0C2FF40B1606C042803D0032005
:1014F00007B0BDE8F08F0120FAE721682020C8611D
:1015000021684A68074B1A404A6084F8410084F811
:10151000425084F840500020EAE70220E8E700004B
:101520000024008000E800FE2DE9FF4F83B0044650
:10153000DDE9108790F84100DDF848909A4693461F
:10154000202870D15FEA08006ED0002F6CD094F88C
:101550004000012867D0012084F84000FFF75AFEC0
:101560000646012200901923D103204601F054FFC2
:10157000002854D1212084F84100402084F8420002
:1015800000256564C4F8248067856563CDE900960D
:1015900053465A462046049901F0F0FE28B1606C8B
:1015A00084F8405004286CD039E0608DFF274FF05C
:1015B00080784FF0007AFF2804D927853A464346C1
:1015C000009505E0608D2085009594F8282053460D
:1015D0002046049901F00AFF32464946204601F0B0
:1015E0006BFF18B1606C04284BD018E0606A411C96
:1015F0006162216800788862608D401E6085208D60
:10160000401E0004000C208521D1608DF8B14B46AE
:10161000002280212046009601F0FEFE28B1032022
:1016200007B0BDE8F08F2EE02BE0608DFF2804D9D5
:1016300027853A464346009505E0608D2085009554
:1016400094F8282053462046049901F0CFFE608D7F
:101650000028C1D132464946204601F006FF002845
:10166000C0D121682020C86121684A68074B1A4010
:101670004A6084F8410084F8425084F840500020C9
:10168000CEE70120CCE70220CAE7000000E800FE18
:1016900000680649884208D10548C16921F4001153
:1016A000C161C0210348FFF759BC70470054004096
:1016B000001002400004004800B500680E4987B0E1
:1016C000884216D1C0200090122001900120029083
:1016D000032003900420049069460848FFF7CCFCDF
:1016E0000748C16941F40011C161C06900F40010EC
:1016F000059007B000BD0000005400400004004801
:1017000000100240024881680278114481607047ED
:1017100080000020074810B5016841F01001016009
:10172000032000F0AFF8002000F006F800F03EF8CB
:10173000002010BD0020024000B5014687B0002205
:101740001C2000F07FF81C2000F070F81448C169DC
:1017500041F00101C161C06905A900F001000690D6
:10176000684600F065FF00F089FF0E494000B0FBBD
:10177000F1F10D484FF08042491E0260416040F295
:10178000E7320021C0E90321816001F079FC10B14A
:10179000012007B000BD044801F08EFCF9E700000D
:1017A0000010024040420F00541400201E4808B5AB
:1017B000816941F001018161816901F001010091BC
:1017C000C16941F08051C161C06900F08050009052
:1017D000032000F057F8002211466FF00B0000F0D4
:1017E00031F8002211466FF00A0000F02BF80022B9
:1017F00011466FF0090000F025F800221146501F35
:1018000000F020F800221146101F00F01BF8002203
:101810000F21901E00F016F800220F21BDE80840AD
:10182000501E00F00FB800000010024000F01F0230
:10183000012191404009800000F1E020C0F8001132
:1018400070470000F0B40E4B1B680C46C3F3022334
:10185000C3F10705042D00D90425191D072901D25C
:10186000002300E0DB1E012606FA05F1491E214097
:1018700099409E40761E16403143F0BC02F0B4B948
:101880000CED00E0064900F0070208684FF6FF0380
:10189000184040EA0220034A1043086070470000E5
:1018A0000CED00E00000FA0510B50C0607D501F0BC
:1018B0007F01C1EBC10100EB8100283005E0C1EBE5
:1018C000C10100EB810000F5E67099B232B101224E
:1018D0008272C180190C0181002010BD0022827229
:1018E0008180F9E77047C1EBC10200EB8202D0F8BA
:1018F000A403926B03F02EB8C1EBC10200EB82028D
:10190000D0F8A403D2F8DC2103F079B82DE9F04334
:1019100001F07F03C3EBC3020C0600EB820201D58A
:10192000283201E002F5E672C9091370517090F88F
:101930007013012946D0012180F87013977A48F678
:10194000BF76002F577848F280034BF68F7948F224
:10195000C0044CF2800548F68F7136D08FB31778EB
:10196000D0F800C03CF827805FEA484807D53CF82B
:10197000278008EA010848EA05082CF8278017782C
:10198000D0F800C03CF827805FEA486807D53CF8EB
:10199000278008EA010848EA04082CF8278092F812
:1019A00000C0076837F82C400C402C4327F82C4027
:1019B0001478056835F824103140194325F82410AF
:1019C00025E032E00220BDE8F083A7B11778056872
:1019D00035F827C05FEA4C6C07D535F827C00CEA0C
:1019E000010C4CEA040C25F827C01278046834F87E
:1019F0002210314011E01678046834F826707F0414
:101A000005D534F826700F402F4324F8267012783D
:101A1000046834F8221001EA0901194324F822105D
:101A2000002180F870130846CDE792F800C00768DF
:101A300037F82C805FEA484807D537F82C8008EA49
:101A4000010848EA050827F82C801778056835F85A
:101A500027C05FEA4C6C07D535F827C00CEA010CAB
:101A60004CEA040C25F827C01578D0F800C03CF8E3
:101A700025700F4027432CF825701578046834F83A
:101A8000251001EA0901194324F82510ADE7F0B546
:101A90000A0601F07F0305D5C3EBC30200EB820207
:101AA000283205E0C1EBC10200EB820202F5E672CA
:101AB000002494701370C909517090F870130129B3
:101AC00021D0012180F87013517803680029117822
:101AD00048F68F7648F2800533F8217015D07F06DE
:101AE00007D533F82170374048F2C006374323F852
:101AF00021701278036833F8221048F6BF7631401F
:101B000081F0300114E00220F0BD7F0407D533F8E6
:101B1000217037404CF28006374323F82170127849
:101B2000036833F822104BF68F76314081F4405130
:101B3000294323F8221080F870430020F0BD01F003
:101B40007F01C1EBC10100EB8100B0F8E40180B27C
:101B500070472DE9F04F01F07F05C5EBC5040E0677
:101B600000EB840401D5283401E004F5E674C909CA
:101B700025706170E260E37090F8701301290DD058
:101B8000012180F87013E27848F68F114AB1012ADA
:101B900021D0022A0DD0032A26D112E00220BDE86E
:101BA000F08F2278036833F822500D4045F400711D
:101BB00018E02278036833F822500D4023F82250B1
:101BC00012E02378026832F823500D4045F4C061DA
:101BD00022F8231008E02278036833F822500D40E1
:101BE00045F4806123F822102378066836F82350E4
:101BF00048F68F710D4048F2800215431D4326F8C8
:101C00002350A77A4FF4806348F6BF794BF68F7A5A
:101C100048F2C0054CF28006EFB3D0F80080277878
:101C2000C34638F827C048F280180CEA010C4CEA89
:101C3000080C2BF827C0E78827F0010C0768BB4683
:101C4000B7F8507094F800809E4607EBC80703EB86
:101C500047032BF803C0238923F0010703689B4641
:101C6000B3F850C094F80080042303EBC8039C44ED
:101C70000EEB4C0C2BF80C7063780768002B237864
:101C800037F823C04FEA4C4C7DD0BCF1000F09DA85
:101C900037F823C000E033E00CEA010C4CEA060CF4
:101CA00027F823C02378076837F823C05FEA4C6C15
:101CB00007D537F823C00CEA010C4CEA050C27F8CD
:101CC00023C02578076837F825300B40334327F8C1
:101CD00025302378056835F8231001EA09011143FE
:101CE00025F823102378056835F8231001EA0A0146
:101CF000114325F82310002180F8701308464EE7A1
:101D000067780FB3A68826F001070668B6F850C0BA
:101D100094F800800CEBC80C03EB4C03F7522678C8
:101D2000036833F826707F0605D533F826700F4018
:101D30002F4323F826702478036833F8241001EA2F
:101D4000090181F020017DE0A58825F001070568E3
:101D5000A946B5F850C094F80080042505EBC805E5
:101D6000654403EB450C29F80C700568B5F8507014
:101D700094F800C04FF0060808EBCC0C674403EB66
:101D800047035F1900E02DE0E3684FF6FF7C3E2B30
:101D90000AD9C3F34F15DB0601D16D1EADB20CEAB3
:101DA000852343F4004307E0C3F34F05DB0701D06D
:101DB0006D1CADB20CEA85233B802378056835F8AD
:101DC00023707F0405D535F823700F40374325F87D
:101DD00023702478036833F8241001EA0A0181F49F
:101DE00040512FE0BCF1000F07DA37F823C00CEAAE
:101DF000010C4CEA060C27F823C02378066836F855
:101E000023707F0605D536F823700F402F4326F840
:101E100023702378066836F823700F402F4326F886
:101E200023702378056835F8231001EA0A0181F44C
:101E30004051114325F823102478036833F8241007
:101E400001EA0901114323F8241054E7F0B501F029
:101E50007F05C5EBC50400EB84041E46C4E9772367
:101E60000022C4F8E42184F8CD2184F8CC51D4F8C0
:101E7000D85104F5E674AB4201D92B46F21A6261DF
:101E80000668062201F07F0102EBC101B6F850702E
:101E90004FF480654FF6FF72394405EB41018D190F
:101EA0003E2B1FD9C3F34F11DB0618D002EA812164
:101EB00041F4004102E000BF02EA8121298022783A
:101EC000016831F822004BF68F73184080F44050BF
:101ED00048F28003184321F822000020F0BD491E7B
:101EE00089B2E3E7C3F34F01DB07E5D0491C89B2B0
:101EF000E2E730B590F87023012A0CD0012480F875
:101F000070430B0601F07F0207D5C2EBC20300EB62
:101F10008303283307E0022030BDC1EBC10300EB8F
:101F2000830303F5E673C9099C701A70597048F26F
:101F3000800352B10468002934F8221011D048F609
:101F4000BF75294081F0100110E0026811884BF63E
:101F5000BF74214081F4805181F010011943118038
:101F600007E04BF68F75294081F48051194324F81E
:101F70002210002180F87013084630BD70B5064667
:101F800001F07F00C0EBC00106EB81040121C4E930
:101F90000E230022226484F8291004F8280F1D461D
:101FA000E068834203D90546181A606100E0626167
:101FB000A07A38B12178306830F82110490614D55C
:101FC000228913E0ABB2A2882169306801F0E8FFF2
:101FD0003068B0F850102278022303EBC20211449B
:101FE0005A0202EB4101455220E0E288ABB221697E
:101FF00001F0D6FF617848F68F7011B101290BD03E
:1020000014E02178336833F82120024048F2C00000
:10201000024323F8212009E02178326832F8213088
:1020200003404CF28000034322F8213022783168CB
:1020300031F8220048F6BF73184080F0300048F2B3
:102040008003184321F82200002070BD10B504461B
:102050000068B0F84400000402D5204601F0D4FD29
:102060002068B0F8441049050AD54FF6FF31A0F8B2
:102070004410204600F0E4F80021204600F0F5F876
:102080002068B0F84410490403D54BF6FF71A0F85E
:1020900044102068B0F84410890403D54DF6FF7150
:1020A000A0F844102068B0F84410C90412D530F8E4
:1020B000401F21F004010180206830F8401F21F00A
:1020C00008010180204600F0C8F821684EF6FF7034
:1020D000A1F844002068B0F84410090518D530F87C
:1020E000401F41F00801018021684FF2FF70A1F804
:1020F0004400206830F8401F41F00401018020684E
:10210000B0F84400C043C00402D5204600F0D0F827
:102110002068B0F84410890506D54FF6FF51A0F8A5
:102120004410204600F09DF82068B0F84410C9051E
:1021300003D54FF6FF61A0F8441010BD70B5040040
:102140004FF0000604D094F87103002510B106E0AA
:10215000012070BD84F87053204600F043F803203E
:1021600084F8710301220CE0C6EBC60004EB80008A
:1021700080F8292000F8286F761CC570C5600561BD
:1021800045616068B042EFD8002010E0C0EBC001AC
:1021900004EB810181F8CD5181F8CC0181F8CF5158
:1021A000C1F8D851C1F8DC51401CC1F8E051616858
:1021B0008142EBD82068A0F840202068A0F8405069
:1021C0002068A0F844502068A0F8505021684FF4CF
:1021D0003F40A1F8400084F8245084F87123002087
:1021E00070BD000000B50068134987B0884220D157
:1021F0004FF4C05000900220019000200290032074
:1022000003900E20049069464FF09040FEF734FF93
:102210000A48C16941F40001C161C069002200F4AB
:102220000000059005211420FFF70CFB1420FFF798
:10223000FDFA07B000BD0000005C00400010024045
:1022400010B504460121D0F8A40302F0C3FCD4F871
:10225000A403BDE8104002F08CBCD0F8A40302F047
:10226000A7BCD0F8A40302F0A9BC90F87023012AFF
:102270000AD0012280F8702341B180F82410002197
:1022800080F870130846704702207047026880216A
:10229000A2F84C10F3E7D0F8A42300F55D711046C6
:1022A00002F0ABBC10B50121FFF71CFB002010BDF4
:1022B00010B50446D0F8A40302F0ECFCA069002895
:1022C00004D00348016841F00601016010BD000020
:1022D00010ED00E02DE9F84F04460068804DC00382
:1022E0006FD5E8690026C00008D4E86940F0805046
:1022F000E861E869012600F08050009079480168A3
:10230000C90512D40168804641F480710160FEF76E
:1023100081FF074605E000BFFEF77CFFC01B642875
:1023200035D8D8F80000C005F6D5286A10F44070FA
:1023300053D0A18801F4407181424ED0286A4FF4F5
:10234000803191FAA1F2B2FA82F29700664A4FF018
:102350000108174420F44070C7F8008491FAA1F1F5
:10236000B1FA81F102EB81010023C1F80034286247
:10237000C00732D0FEF74EFF074641F2883A4FF0D1
:10238000020907E0FEF746FFC11B514502D90320B1
:10239000BDE8F88F99FAA9F1B1FA81F141F0400155
:1023A0004846B8EB511F01D129680CE090FAA0F122
:1023B000B1FA81F141F04001B0EB511F02D1296A1D
:1023C00001E015E0696A99FAA9F0B0FA80F000F02E
:1023D0001F0008FA00F21142D4D0286A616820F484
:1023E0004070084328621EB1E86920F08050E8611F
:1023F0002078C00705D0286BA16820F003000843AF
:1024000028632078800705D5286BE16820F44030E8
:10241000084328632078400705D5286B216920F4FC
:102420004020084328632078800605D5286BE169A1
:1024300020F01000084328632068800305D56868F1
:10244000A16B20F48000084368602078400605D521
:10245000286B216A20F020000843286320780007B9
:1024600005D5286B616920F4401008432863207863
:10247000C00605D5286BA16920F4400008432863F5
:102480002088800505D56868E16A20F400000843CB
:1024900068602078000605D5E86A616A20F4F87063
:1024A0000843E8622088C00505D5E86AA16A20F4DF
:1024B00078500843E8622088C00405D5286B216B5A
:1024C00020F48070084328632088800405D5286B99
:1024D000616B20F4007008432863002058E7000077
:1024E0000010024000700040000042422DE9F04719
:1024F0000F46050069D04A4E306800F00700B84228
:1025000009D2306820F0070038433060306800F0AE
:102510000700B84259D12878424C800705D5606839
:10252000A96820F0F000084360602878C0073DD01B
:102530006968012001290DD0022923D05FF0020330
:1025400093FAA3F2B2FA82F242F02002520904D0C6
:10255000226803E04FF40033F2E7626A93FAA3F3D0
:10256000B3FA83F303F01F03984002422DD0606852
:1025700020F0030008436060FEF74CFE804641F205
:1025800088390CE04FF00073DAE700BFFEF742FE37
:10259000A0EB0801494502D90320BDE8F087606837
:1025A000696800F00C00B0EB810FEFD1306800F0EB
:1025B0000700B8420BD9306820F00700384330607C
:1025C000306800F00700B84201D00120E5E7287824
:1025D000400705D56068E96820F4E0600843606062
:1025E0002878000706D56068296920F4605040EA21
:1025F000C100606000F05AF86168F02292FAA2F21D
:1026000001F0F001B2FA82F2D140074A515CC840B1
:10261000064908600020FFF78FF80020BDE70000A2
:102620000020024000100240686800088C00002072
:102630000F2202600C4A536803F00303436053689F
:1026400003F0F0038360536803F4E063C3605268EF
:102650004FF4E06303EAD20202610448006800F02C
:102660000700086070470000001002400020024090
:1026700001480068704700008C00002008480949A4
:10268000006849684FF4E06292FAA2F201F4E06156
:10269000B2FA82F2D140044A515CC840704700004F
:1026A0008C0000200010024078680008144B10B520
:1026B0005A68144802F00C0104291DD008291BD1C6
:1026C0004FF4701494FAA4F402F47011B4FA84F480
:1026D000E1400D4CDB6A615C0F2494FAA4F403F032
:1026E0000F03B4FA84F4E340074C1034D203E35CE4
:1026F00003D5B0FBF3F0484310BD0448484310BD78
:102700000010024000127A004868000800093D00ED
:102710002DE9F84F040071D02078FB4DC0074FF031
:10272000010625D068687704C0F38100012807D02E
:102730006868C0F3810002281BD16868C00318D5FF
:1027400097FAA7F0B0FA80F040F02000400901D0DD
:10275000286800E0686A97FAA7F1B1FA81F101F000
:102760001F0106FA01F1084265D060680028D2D046
:1027700061E06068B0F5803F0BD010B1B0F5A02FDC
:1027800017D0286820F480302860286820F4802042
:1027900002E0286840F480302860E86AA16820F0F0
:1027A0000F000843E862606820B3FEF733FD8046FF
:1027B0000AE0286840F480202860EAE7FEF72AFD56
:1027C000A0EB0800642872D897FAA7F0B0FA80F05E
:1027D00040F02000400901D0286800E0686A97FABC
:1027E000A7F1B1FA81F101F01F0106FA01F10842E7
:1027F000E4D020E0FEF70EFD804607E0C7E000BF12
:10280000FEF708FDA0EB08006428DCD897FAA7F0D3
:10281000B0FA80F040F02000400901D0286800E0C4
:10282000686A97FAA7F1B1FA81F101F01F0106FA7F
:1028300001F10842E4D12078DFF8D08280074FF020
:10284000000A4FF0020759D568684FF0F80B10F0F6
:102850000C0F07D06868C0F3810002281BD168689C
:10286000C00318D497FAA7F0B0FA80F040F0200027
:10287000400901D0286800E0686A97FAA7F1B1FA28
:1028800081F101F01F0106FA01F108422BD0206905
:1028900001287CD127E0206988B396FAA6F0B0FA27
:1028A00080F048F82060FEF7B5FC814606E055E16F
:1028B000FEF7B0FCA0EB0900022884D897FAA7F035
:1028C000B0FA80F040F02000400901D0286800E014
:1028D000686A97FAA7F1B1FA81F101F01F0106FACF
:1028E00001F10842E4D028689BFAABF26169B2FAC0
:1028F00082F220F0F80091400843286025E0FFE7CD
:1029000096FAA6F1B1FA81F148F821A0FEF782FC0F
:10291000814605E0FEF77EFCA0EB09000228CCD83A
:1029200097FAA7F0B0FA80F040F02000400901D0FB
:10293000286800E0686A97FAA7F1B1FA81F101F01E
:102940001F0106FA01F10842E4D1207800076AD598
:10295000A069A0B396FAA6F0B0FA80F008EB800068
:10296000C0F88064FEF756FC814605E0FEF752FC95
:10297000A0EB09000228A0D897FAA7F0B0FA80F0DF
:1029800040F06000B6EB501F02D128680CE077E100
:1029900097FAA7F0B0FA80F040F06000B7EB501F54
:1029A00001D1286A00E0686A97FAA7F1B1FA81F1CB
:1029B00001F01F0106FA01F21042D7D033E0FFE721
:1029C00096FAA6F0B0FA80F008EB8000C0F880A478
:1029D000FEF720FC814605E0FEF71CFCA0EB090099
:1029E00002289CD897FAA7F0B0FA80F040F0600077
:1029F000B6EB501F01D128680BE097FAA7F0B0FAA8
:102A000080F040F06000B7EB501F01D1286A00E071
:102A1000686A97FAA7F1B1FA81F101F01F0106FA8D
:102A200001F21042D8D12078400774D5E8694FF000
:102A30000009C00009D4E86940F08050E861E86905
:102A40004FF0010900F08050009031480168C9053D
:102A500012D4016841F480710160FEF7DBFB83460C
:102A600006E000BFFEF7D6FBA0EB0B00642875D88C
:102A700027480068C005F5D5E06801280AD008B1EC
:102A8000052811D0286A20F001002862286A20F069
:102A9000040002E0286A40F001002862E068C8B340
:102AA000FEF7B8FB83460DE0286A40F00400286278
:102AB000F0E700BFFEF7AEFBA0EB0B0141F2883060
:102AC00081424BD897FAA7F0B0FA80F040F040006E
:102AD000B6EB501F01D128680BE097FAA7F0B0FAC7
:102AE00080F040F04000B7EB501F01D1286A00E0B1
:102AF000686A97FAA7F1B1FA81F101F01F0106FAAD
:102B000001F21042D6D035E00010024000004242EF
:102B10000070004000E034E0FEF77CFB834607E0F5
:102B2000FEF778FBA0EB0B0141F28830814215D80B
:102B300097FAA7F0B0FA80F040F04000B6EB501FD3
:102B400001D128680CE097FAA7F0B0FA80F040F0C5
:102B50004000B7EB501F02D1286A01E083E0686AA9
:102B600097FAA7F1B1FA81F101F01F0106FA01F21B
:102B70001042D5D1B9F1000F03D0E86920F08050A0
:102B8000E861E06980B36968C1F38101022977D007
:102B90004FF080714F00022809D091FAA1F0B0FAED
:102BA00080F048F820A0FEF735FB04465EE0504672
:102BB0008A4691FAA1F1B1FA81F1C14648F82100A3
:102BC000FEF728FB804605E0FEF724FBA0EB08009B
:102BD000022848D897FAA7F0B0FA80F040F0200019
:102BE000400902D0286801E056E0686A97FAA7F128
:102BF000B1FA81F101F01F0106FA01F10842E3D1B7
:102C0000D4E908100843696821F474110843686026
:102C10009AFAAAF0B0FA80F049F82060FEF7FAFAC2
:102C2000044604E0FEF7F6FA001B02281BD897FAC8
:102C3000A7F0B0FA80F040F02000400901D02868E9
:102C400000E0686A97FAA7F1B1FA81F101F01F017B
:102C500006FA01F10842E5D01EE000BFFEF7DAFAFD
:102C6000001B022802D90320BDE8F88F97FAA7F0CD
:102C7000B0FA80F040F02000400902D0286801E05E
:102C80000CE0686A97FAA7F1B1FA81F101F01F012F
:102C900006FA01F10842E1D10020E5E70120E3E76F
:102CA00010B5040011D0022084F85D00206801688E
:102CB00021F040010160204600F068F80020206605
:102CC00084F85D0084F85C0010BD012010BD90F810
:102CD0005D0070472DE9F041040005D00025A56294
:102CE00094F85D0018B107E00120BDE8F08184F898
:102CF0005C50204600F05EF8022384F85D302068C6
:102D0000016821F040010160E0684FF4E066B042E4
:102D100001D9002101E04FF48051B0F5706F02D06D
:102D2000B04200D0A562276B012227B9B04201D979
:102D3000236300E02263D4E901031843D4E9043695
:102D400033431843238B03F400731843E369184398
:102D5000236A1843A36A184323681860636B606A88
:102D6000A66918430427E36807EA16463343184365
:102D70000843216848602068C16921F40061C1618D
:102D8000256684F85D200020AFE700000068074951
:102D9000884209D10648816921F480518161E0218E
:102DA0004FF09040FEF7DAB8704700000030014065
:102DB0000010024000B500680E4987B0884217D164
:102DC0000D48816941F4805181618069694600F450
:102DD00080500590E0200090022001900020029099
:102DE00003200390052004904FF09040FEF744F933
:102DF00007B000BD00300140001002402DE9F05F37
:102E0000044690F85C0000260A9F994692460D46BB
:102E10004FF0010801280ED0012084F85C00FEF775
:102E2000F9F9834694F85D00616801280CD0B1F58A
:102E3000827F07D102E00220BDE8F09FA16809B9B6
:102E4000042801D00226F0E0002D79D0BAF1000F5D
:102E5000FBD0B9F1000FF8D094F85D00042802D03F
:102E6000052084F85D0000202066C4F840A0A4F886
:102E70004690A4F84490A563A4F83E90A4F83C9032
:102E8000E0642065E0684FF4E061884203D8B4F85C
:102E90004600012804D92068426822F4805203E0E9
:102EA0002068426842F480524260206802685206FC
:102EB00003D4026842F040020260E0688842606821
:102EC0003FD910B1E08F012832D1216835F8020BCB
:102ED000C860E08F401EE0872AE000BFB8F1000F15
:102EE0000DD0E08F58B120688168890707D535F883
:102EF000021BC160E08F401EE0874FF00008B4F86D
:102F0000460068B120688168C90709D0C0682AF8FE
:102F1000020BB4F84600401EA4F846004FF001082A
:102F2000781C05D0FEF776F9A0EB0B00B84268D20A
:102F3000E08F0028D2D1B4F846000028CED169E055
:102F400072E010B1E08F01285DD1E08F012806D931
:102F5000216835F8020BC860E08F801E05E020680C
:102F600015F8011B0173E08F401EE0874BE000BFA6
:102F7000B8F1000F16D0E08FA0B1206881688907F2
:102F800010D5E18F012905D935F8021BC160E08F0A
:102F9000801E04E015F8011B0173E08F401EE087DE
:102FA0004FF00008B4F8460018B320688168C907DC
:102FB0001FD0B4F84610012911D9C0682AF8020BB5
:102FC000B4F84600801EA4F84600B4F84600012874
:102FD0000DD82068416841F48051416007E0017BD1
:102FE0000AF8011BB4F84600401EA4F846004FF052
:102FF0000108781C07D0FEF70DF9A0EB0B00B842D2
:1030000001D3032611E0E08F0028B1D1B4F84600C7
:103010000028ADD15A463946204600F0D4FF08B109
:1030200020202066206E00B10126012084F85D007A
:10303000002084F85C003046FEE64FF0E0210428D2
:10304000086903D020F004000861704740F00400D4
:10305000FAE710B5401EB0F1807F01D3012010BD0A
:103060004FF0E02460610F21601700F0BDFD0020EB
:10307000A06107202061002010BD70477047704795
:1030800010B5040003D094F83D0010B107E0012012
:1030900010BD002084F83C00204600F00CF802200F
:1030A00084F83D00211D206801F04EF9012084F8CC
:1030B0003D00002010BD70470168CA6842F001025F
:1030C000CA600068016841F001010160002070479A
:1030D000704770B50446006801694FF00005C943A8
:1030E000890715D4C168C943890711D4E91E016154
:1030F00001202077206880698007204602D0FFF7F2
:10310000E7FF04E000F0A7F8204600F0A5F82577D7
:1031100020680169C943490717D4C168C9434907F1
:1031200013D46FF0040101610220207720688069C8
:1031300010F4407F204602D0FFF7CAFF04E000F001
:103140008AF8204600F088F8257720680169C9438D
:10315000090716D4C168C943090712D46FF00801E2
:103160000161042020772068C0698007204602D0D2
:10317000FFF7AEFF04E000F06EF8204600F06CF8B8
:10318000257720680169C943C90617D4C168C943B6
:10319000C90613D46FF01001016108202077206860
:1031A000C06910F4407F204602D0FFF791FF04E091
:1031B00000F051F8204600F04FF8257720680169AB
:1031C000C943C90708D1C168C943C90704D1891EC9
:1031D0000161204600F041F820680169C9430906F1
:1031E00009D4C168C943090605D46FF080010161A3
:1031F0002046FFF743FF20680169C943C90509D488
:10320000C168C943090605D46FF480710161204685
:10321000FFF733FF20680169C943490609D4C16833
:10322000C943490605D46FF040010161204600F012
:103230001BF820680169C94389060BD4C168C943DA
:10324000890607D46FF0200101612046BDE8704077
:10325000FFF715BF70BD704770470068B0F1804F31
:1032600001D1FEF74FBA70477047FEE701688A69DF
:10327000D243920701D400228A6200688169C9435F
:10328000C90703D0816941F00101816170470000E5
:103290002DE9F0410446006890460E468069C0431F
:1032A000C0062ED40025202720688069C0438006F0
:1032B00011D5701CF8D02EB1FDF7ACFFA0EB0800C3
:1032C000B042F1D984F8417084F8425084F84050FB
:1032D0000320BDE8F08121681020C8612068C76123
:1032E0002046FFF7C3FF54F8440B4168064A1140DB
:1032F0004160042044F820096777A57725770120ED
:10330000E7E70020E5E7000000E800FE2DE9F843CC
:1033100004461646DDE9089717489846DAB2009049
:103320000023204600F062F83A464946204600F065
:10333000C3F818B1606C04281CD018E0F5B2B8F1DD
:10334000010F09D02168300A88623A464946204672
:1033500000F0B2F80028EDD1206885624B460022CB
:1033600040212046009700F057F8002800D00320A5
:10337000BDE8F8830120FBE7002000802DE9F84339
:103380000446164618489846DDE90897DAB2C302A3
:103390000090204600F02AF83A464946204600F0C0
:1033A0008BF818B1606C04281CD018E0F5B2B8F1A5
:1033B000010F09D02168300A88623A464946204602
:1033C00000F07AF80028EDD1206885624B46002293
:1033D00080212046009700F01FF8002800D003202D
:1033E000BDE8F8830120FBE700200080F0B5056808
:1033F000059C68684FF48066064FC1F3090106EA30
:10340000545641EA02413E431943B0432143084325
:103410006860F0BDFF63FF032DE9F0411D461746CC
:103420000E460446DDF8188013E0681C11D02DB15B
:10343000FDF7F0FEA0EB0800A8420AD9202084F88E
:103440004100002084F8420084F840000320BDE8D9
:10345000F0812068806936EA000004D00020B8427C
:10346000E3D00020F3E70120F9E770B516460D46DA
:1034700004461AE0324629462046FFF709FF08B104
:10348000012070BD25B1FDF7C5FE801BA8420CD9F7
:1034900054F8440F40F0200044F8040920206070E4
:1034A0000020A0702070032070BD20688069C04398
:1034B0008006DFD4002070BD70B516460D46044668
:1034C0001CE0324629462046FFF7E2FE08B1012003
:1034D00070BD681C12D025B1FDF79CFE801BA84270
:1034E0000CD954F8440F40F0200044F8040920207F
:1034F00060700020A0702070032070BD206880697B
:10350000C0438007DDD4002070BD000010B5034823
:10351000FDF7DAFEBDE8104000F002B89822002066
:1035200010B586B01B48FDF7E8FE00282FD11948DA
:1035300019491A4C0160322181600121C1600021CA
:1035400001614161C1610162606940F48020606194
:103550006069694600F480200590C0200090022038
:103560000190029003200390042004900C48FDF782
:1035700083FDE06940F40010E061E06900F40010B0
:10358000059006B00348BDE81040FDF7B9BE06B08F
:1035900010BD00009822002000540040001002409E
:1035A0000004004838B50446012222216846FDF790
:1035B00089FC14B1012C05D00AE09DF8000000F050
:1035C0007F0003E09DF8000000F0F7008DF8000098
:1035D000012222216846FDF79DFC38BD38B504461E
:1035E000012222216846FDF76DFC14B1012C07D0A1
:1035F0000EE09DF8000000F07F0040F0800005E044
:103600009DF8000000F0F70040F008008DF8000081
:10361000012222216846FDF77DFC38BD38B50446FD
:10362000012224216846FDF74DFC9DF8000001228F
:1036300000F0EF0020438DF8000024216846FDF7DC
:1036400069FC38BD38B50446012221216846FDF7E2
:1036500039FC9DF80000012200F0C00020438DF8E5
:10366000000021216846FDF755FC38BD1CB5044615
:1036700000208DF800008DF80400012230216846FA
:10368000FDF720FC0122222101A8FDF71BFC9DF87B
:103690000000012200F080008DF800009DF8040079
:1036A000302100F0DF0004438DF804406846FDF748
:1036B00031FC0122222101A8FDF72CFC1CBD38B5EC
:1036C000044600208DF80000FDF7C6FB8DF8004091
:1036D000012220216846FDF71DFC200A8DF800001C
:1036E000012223216846FDF715FC38BD08B5FDF71A
:1036F000B3FB01220F216846FDF7E4FB9DF80000B3
:1037000008BD000070B505462DED028B86B0002087
:1037100000900190029003908DF8100004469FEDF8
:10372000288A0122232104A8FDF7CCFB06222821A8
:103730006846FDF7C7FB9DF8101068464B0602AAC5
:103740000DD400BF00EB440610F81430767803EB7C
:10375000062322F81430641C032CF3DB0BE000EB8F
:10376000440310F814605B7803EB062322F814304E
:10377000641C032CF3DB11F0300004D0102805D0BA
:10378000202808D105E09FED0F8A04E09FED0E8A06
:1037900001E09FED0E8A002132F9110000EE100ABF
:1037A00005EB8100491CB8EEC00A032920EE080A87
:1037B00080ED000AF0DB06B0BDEC028B70BD0000AE
:1037C0000000000000000C4100008C4100008C4211
:1037D00008B5012224216846FDF774FB9DF800001E
:1037E000012240F080008DF8000024216846FDF79A
:1037F00091FB08BD10B5044638213220FDF7F8FAD8
:1038000040EA040238213220FDF70CFB0A223A215B
:103810003220FDF707FB052422463B213220FDF72D
:1038200001FB22463C213220FDF7FCFA3222BDE8A2
:1038300010403D211046FDF7F5BA10B50446212190
:103840003220FDF7D5FA20F0040222432121BDE801
:1038500010403220FDF7E6BA10B50446212132208F
:10386000FDF7C6FA00F0F70222432121BDE810401F
:103870003220FDF7D7BA10B5044621213220FDF7DA
:10388000B7FA00F00C0222432121BDE8104032209B
:10389000FDF7C8BA10B5044622213220FDF7A8FA78
:1038A00040EA04022221BDE810403220FDF7BABAF6
:1038B00010B50446FDF764FAE2B220213220FDF78C
:1038C000B1FA00222321BDE810403220FDF7AABA48
:1038D00010B5FDF755FA0F21BDE810403220FDF775
:1038E00087BA00002DE9FF41064600240125232167
:1038F0003220FDF77DFA074624213220FDF778FAC1
:1039000028213220FDF774FA8DF800002921322099
:10391000FDF76EFA8DF801002A213220FDF768FAD2
:103920008DF802002B213220FDF762FA8DF803009A
:103930002C213220FDF75CFA8DF804002D21322075
:10394000FDF756FA8DF805007A06694602A810D4EC
:1039500001EB440292F9003092F901201204120A9C
:1039600003FA82F220F81420641CE4B2032CEFD393
:103970000FE001EB440292F9013092F900201204A9
:10398000120A03FA82F220F81420641CE4B2032C19
:10399000EFD317F0300106D0102906D0202906D029
:1039A000302907D105E0012504E0022502E00425C5
:1039B00000E00C255FF0000130F8112012FB05F249
:1039C00026F81120491CC9B20329F5D3BDE8FF81AF
:1039D00010B524213220FDF70BFA40F0800224219B
:1039E000BDE810403220FDF71DBA10B5FDF7A0F973
:1039F0008020FFF74FFF0420FFF71FFFBDE81040B6
:103A00001020FFF7F7BE000070B5274886B0416967
:103A100041F400114161416901F4001105914169CE
:103A200041F400214161416901F40021059141699E
:103A300041F480014161416901F4800105914169CE
:103A400041F400314161416901F40031059141695E
:103A500041F4802141614069144E00F480204FF60A
:103A600008750590002229463046FDF7CDFB37202A
:103A700000900F480024CDE9010469463046FDF767
:103A8000FBFA00950125CDE90154694630460394BF
:103A9000FDF7F2FACDE9005469464FF090400294E8
:103AA000FDF7EAFA06B070BD0010024000100048B1
:103AB00000001210164810B5144901601549416004
:103AC00000210122C0E90212016141618161C161ED
:103AD0000162FDF715FC18B1A8210FA001F067FAEB
:103AE00000210B48FDF79CFB18B1AF210AA001F0A3
:103AF0005EFA00210648FDF7BEFB002805D0BDE8B0
:103B00001040B62104A001F052BA10BD005400408C
:103B1000941400200E0900202E2E5C5372635C4921
:103B20006E697469616C697A6572735C496E6974F7
:103B30004D61696E2E630000134810B51149016094
:103B40004FF48271416000214FF44072C0E90212CB
:103B50004FF400720161C0E905120822C0E9072193
:103B600007234162C0E90A13C0E90C12FFF7B2F85B
:103B7000002805D0BDE81040D02104A001F017BAFC
:103B800010BD000000300140E01400202E2E5C53D8
:103B900072635C496E697469616C697A6572735CA1
:103BA000496E69744D61696E2E63000010B5002284
:103BB0000849094800F099FE0849074801F097F8BC
:103BC0000749054800F0DAFCBDE81040024801F062
:103BD000DBB800000800002098020020D00100207F
:103BE0003C000020FEE770470907090E002806DAAE
:103BF00000F00F0000F1E02080F8141D704700F184
:103C0000E02080F8001470472DE9FC5F4FF00008B9
:103C10000446ADF8008048F60F7B4FF002094FF4E0
:103C2000806698E1BDF8041011F00F072FD030F82E
:103C30002710ADF80010BDF8001009047CD530F84D
:103C4000271040F68F72114020F82710C7EBC700ED
:103C500004EB800595F8D60105F5E67500286CD0D3
:103C60002878D4F800C03CF82010BCF85020490453
:103C70007ED509EBC000104406EB40003CF8000084
:103C8000C0F309005FEA000A73D0EA88D0E0BDF80B
:103C90000410C9062AD4018801EA0B0101802068BA
:103CA00004F12805B0F850202B7809EBC30111442A
:103CB00006EB4101405AC0F309002064A16B08449F
:103CC000A06300212046FDF70EFE94F82400002892
:103CD000A7D068690028A4D194F82400216840F096
:103CE0008000A1F84C0084F8248034E1018804F5B8
:103CF000E675ADF80010BDF8001009051ED5B0F846
:103D000050202B78062101EBC301114406EB410141
:103D1000405A04F55D71C0F30903AB61AA882068BD
:103D200000F028F92068018840F68F721140018068
:103D30002046FEF7B0FA0EE1A0E055E0BDF8001015
:103D40000904D2D5018840F68F72114001802068A5
:103D5000B0F850202B78062101EBC301114406EB8B
:103D60004101405A83059B0DAB610BD0AA8801E04D
:103D700050E062E02969206800F0FCF8A969286930
:103D80000844286100212046FDF7B6FD2068B0F800
:103D90005010891D06EB41014218E9683E290CD9F3
:103DA000C1F34F10C90601D1401E80B24FF6FF711A
:103DB00001EA802040F4004009E0C1F34F00C90748
:103DC00001D0401C80B24FF6FF7101EA80201080C4
:103DD000216808884BF68F72104080F4405048F2FA
:103DE000800210430880B6E02068B0F850102B78AD
:103DF000062202EBC302114406EB4101415AC1F312
:103E000009015FEA010A24D0AA885346296900F013
:103E1000B1F81EE0062101EBC000104406EB4000A3
:103E20003CF80000C0F309005FEA000A05D02A89C7
:103E300003466046296900F09DF82878216831F82A
:103E4000202048F68F731A4048F2C0031A4321F825
:103E50002020A8695044A861286900EB0A022A6161
:103E60006B6913B1E968514504D929782046FDF7FB
:103E700043FD03E029782046FDF7E8FFBDF8000088
:103E8000000668D5C7EBC70004EB8005206830F852
:103E9000271001EA0B0120F8271095F83200283589
:103EA0000028206812D0297830F82120B0F850304E
:103EB00052061ED509EBC101194406EB4101405AD7
:103EC00083059B0DAB6124D0EA881EE0B0F850104A
:103ED0002A7809EBC202114406EB4101405A8305DE
:103EE0009B0DAB6121D0AA882969206800F058F8A1
:103EF0001BE0062202EBC101194406EB4101405AC6
:103F000083059B0DAB6104D02A892969206800F0E4
:103F100047F82978206830F8212048F68F731A4036
:103F20004CF280031A4320F821202068B0F850207A
:103F30002B7809EBC301114406EB4101405AC0F351
:103F40000900A86129690A182A6129786B69204645
:103F500063B1FEF713F82068B0F84410ADF8041010
:103F600009043FF55FAE0020BDE8FC9FFDF7BBFCF8
:103F7000F1E7000010B500EB42005C0800F580603E
:103F800009D000BF30F8042B01F8012B120A01F808
:103F9000012B641EF6D1DA0701D00078087010BD3D
:103FA00010B55B1C00EB42005B0800F5806009D097
:103FB00011F8012B5B1E11F8014B42EA042220F894
:103FC000042BF5D110BDF8B515460E460B460092F0
:103FD000044600224FF4C05100F019F888B9334666
:103FE000002280212046009500F060F848B9334651
:103FF00000224FF4C0612046009500F008F8002828
:1040000004D0206E40F0200020660320F8BD2DE98A
:10401000F8431D4617460E4604464FF4C068DDF8C7
:1040200020903CE0464505D127B9007B8DF8000083
:104030009DF80000681C32D02DB1FDF7EBF8A0EB25
:104040000900A8422BD32068416821F0E0014160BB
:104050006068B0F5827F0BD1A068B0F5004F02D048
:10406000B0F5806F04D12068016821F04001016043
:10407000A06AB0F5005F09D12068016821F4005101
:1040800001602068016841F400510160012084F85A
:104090005D00002084F85C000320BDE8F883206800
:1040A00081683140B942BDD10020F6E72DE9F041E9
:1040B0001D4617460E460446DDF8188034E0681C9D
:1040C00032D02DB1FDF7A6F8A0EB0800A8422BD303
:1040D0002068416821F0E00141606068B0F5827FAE
:1040E0000BD1A068B0F5004F02D0B0F5806F04D1BD
:1040F0002068016821F040010160A06AB0F5005F0E
:1041000009D12068016821F400510160206801682C
:1041100041F400510160012084F85D00002084F822
:104120005C000320BDE8F0812068806836EA00006A
:1041300004D00020B842C2D10020F3E70120F9E703
:1041400000B587B02048FEF7C2FD00283AD11E48CE
:104150001E49072201601821C1610021816041616F
:104160000161C0E90A121202C26001624FF40072DA
:10417000826141624FF4827242601548826942F462
:1041800080528261826902F480520592426942F44F
:1041900000324261406900F400300590E020009058
:1041A0000220CDE901010320039005200490694617
:1041B0004FF09040FCF760FF07B003485DF804EB58
:1041C000FEF788BD07B000BD34220020003001405A
:1041D0000010024001B582B000208DF804000948AB
:1041E000012301AA4068009002A90748FEF706FED5
:1041F00020B10548FEF754FDFFF7A2FF9DF804002B
:104200000EBD00006802002034220020FFF7CEFC23
:10421000FEE701F0F7BD000030B59FB0032000902D
:104220004FF4A0200024CDE90104012004901020C7
:10423000059002250003CDE907500001099068466A
:10424000FEF766FA18B1742119A000F0B0FE0F2035
:10425000CDE919054FF48060CDE91B40012119A873
:104260001D94FEF743F918B1822111A000F09FFEC2
:1042700017480A904004189011940AA8FEF72AF8EB
:1042800018B18A210AA000F092FEFEF7F1F94FF46E
:104290007A71B0FBF1F0FEF7DCFE0420FEF7CDFEF4
:1042A00000220F21501EFDF7CDFA1FB030BD0000D7
:1042B0002E2E5C5372635C496E697469616C697A15
:1042C0006572735C496E69744D61696E2E6300009E
:1042D000200002001448016841F470010160134895
:1042E000016841F0010101604168114A11404160DB
:1042F0000168104A11400160016821F480210160C9
:10430000416821F4FE014160C16A21F00F01C162E0
:10431000016B094A11400163002181600249C00319
:10432000803908607047000088ED00E0001002400E
:104330000CC07FF8FFFFF6FECCFC00FF0148FEF743
:10434000C8BE0000541400202DE9F0430268234B3E
:10435000234D244E244C4FF08049984207D04845C5
:1043600005D0A84203D0B04201D0A04203D122F030
:1043700070074A683A431D4FDFF874C0DFF8748055
:1043800098420DD048450BD0A84209D0B04207D082
:10439000A04205D0B84203D0604501D0404503D1CA
:1043A00022F44075CA682A434D6922F080022A43EC
:1043B00002608A68C2620A688262984207D0A0429C
:1043C00005D0B84203D0604501D0404501D109690C
:1043D000016301214161BDE8F0830000002C014030
:1043E000000400400008004000340140004001404B
:1043F0000044014000480140D0F8180220B10021DB
:10440000C0F81412084670470220704770B5054680
:10441000D0F8184200F028FBC4F80C02D5F81802B6
:1044200048B1D5F81C12D4F80402CA6804F5037127
:104430009047002070BD022070BD70B50446002575
:10444000812100F077FA0121204600F073FA8221E1
:10445000204600F06FFAD4F8180250B1D4F81C02CC
:1044600004F5067440688047206800F093FD002042
:104470002060284670BD10B5D0E9864159B194F846
:104480000002FF2807D08B6894F801222146984744
:10449000FF2084F80002002010BD00000A210180E6
:1044A00000487047F8000020432101800048704711
:1044B000480100204321018000487047040100208A
:1044C00043210180004870478C0100202DE9F04114
:1044D0000446007C00254FF4007670B3402302228E
:1044E0008121204600F022FB4023022201212046A8
:1044F00000F01CFB082303228221204600F016FB5B
:104500004FF4077000F048FDC4F81802F0B10746F8
:10451000D4F81C02006880470020C7F81402C7F8CE
:104520001802207CD7F8042290B1402301212046B4
:1045300000F00FFB2846BDE8F081FFE7334602227A
:104540008121204600F0F2FA3346CEE70125F1E75B
:104550003346EBE710B5D0F8181269B1027C002A97
:10456000D1F8042205D04023012100F0F2FA002006
:1045700010BD4FF40073F7E7022010BD0246022081
:10458000002902D00020C2F81C127047D0F818028F
:10459000C0F8041200207047D0F81802C0F81022AA
:1045A000C0F808120020704770B50646D0F81852BF
:1045B00008780C4610F0600121D0202927D1E2882C
:1045C000AAB10006607807D5D6F81C128B68294678
:1045D0009847E288294617E085F80002A07985F817
:1045E0000102E2882946304600F050F80FE0D6F884
:1045F0001C12607800228B682146984707E060789B
:104600000A2804D103490122304600F059F800205D
:1046100070BD0000F400002010B5D0F8181289B168
:10462000D1F814220AB1012010BD0122C1F81422D0
:10463000B1F8102293B2D1F80822812100F033FBA7
:10464000002010BD022010BD10B5D0F81422526811
:104650009047002010BD134610B50A46002100F017
:1046600078FA002010BD134610B50A46002100F06C
:104670001AFB002010BD10B50446802100F0EAFAB4
:104680002046BDE81040002100F0E4BA10B5032335
:10469000C0F80821C0F8F431C0F80C2113460A46CE
:1046A000002100F056FA002010BD10B505210023AE
:1046B000C0F8F4111A46194600F04BFA002010BD5C
:1046C00010B502238261C0F8F431C26113460A4674
:1046D000002100F0E8FA002010BD10B504210023ED
:1046E000C0F8F4111A46194600F0DDFA002010BD9A
:1046F00010B50A46024903A000F0D4F8004810BDE6
:10470000840A002043444320436F6E6669670000BB
:1047100012200880004870472800002010B50A4683
:10472000024903A000F0BEF8004810BD840A002032
:1047300043444320496E74657266616365000000FE
:1047400004200880004870472400002010B50A4665
:10475000024903A000F0A6F8004810BD840A00201A
:1047600053544D6963726F656C656374726F6E69E3
:104770006373000010B50A46024903A000F092F8E6
:10478000004810BD840A002053544D33322056692E
:10479000727475616C20436F6D506F72740000000D
:1047A00010B50A46024903A000F07CF8004810BD8D
:1047B000840A0020303030303030303030303141F9
:1047C00000000000F8B5044648880D46010A082993
:1047D0004BD2DFE801F04A0409174A4A4048D4F8AE
:1047E0001012207C0A6832E0207C02260028D4F8CF
:1047F000140205D0C16A684688470146467041E008
:10480000816AF8E7C0B206282FD2DFE800F003087B
:104810000D12171CD4F81012207C4A6817E0D4F847
:104820001012207C8A6812E0D4F81012207CCA682A
:104830000DE0D4F81012207C0A6908E0D4F81012B8
:10484000207C4A6903E0D4F81012207C8A6969460A
:104850009047014616E0207C38B9D4F81402416B29
:1048600068468847F5E7207C20B129462046FFF7B7
:1048700002FFF8BDD4F81402016B68468847014670
:1048800007204870BDF800000028F2D0EA88002A0E
:10489000EFD0824200D90246ADF800202046FFF753
:1048A0000FFFF8BD70B5002300281DD00446002579
:1048B00002E06D1CEDB2641C2678002EF9D10224B2
:1048C00004EB45041480CC545B1C0322CA5400241E
:1048D0005B1C06E0CA545B1CDAB28C54521CD3B287
:1048E000401C0278002AF5D170BD10B580B1D0F817
:1048F000143213B10023C0F8143209B1C0F81012F9
:10490000012180F8FC11027000F0B2F8002010BD07
:10491000022010BD10B50024D0F82002FDF7B7F832
:1049200030B1012801D0022801D0022400E0012486
:10493000204610BD10B50024D0F82002FCF7E6FF99
:1049400030B1012801D0022801D0022400E0012466
:10495000204610BD2DE9F0411746044641B1D4F878
:10496000140242698AB394F8FC01032842D043E060
:10497000D4F8F411002504F11400022933D1D0E950
:1049800002639E4207D9F31A83609AB239462046E1
:10499000FFF769FE12E04068B0FBF3F103FB110181
:1049A000A1B9984212D3D4F8F81188420ED200224D
:1049B00011462046FFF757FEC4F8F85100231A4667
:1049C0001946204600F0C5F80DE012E0D4F81402B4
:1049D000C16829B194F8FC01032801D12046884719
:1049E0002046FFF762FE94F80002012804D184F803
:1049F000005201E0204690470020BDE8F08170B5EC
:104A00001546044641B1D4F8140282693AB394F8C9
:104A1000FC01032824D025E0D4F8F41104F58270B9
:104A200003291FD1D0E902218A420BD9531A83608E
:104A30000846834200D303469AB229462046FFF730
:104A40000AFE0FE0D4F81402016929B194F8FC01C0
:104A5000032801D1204688472046FFF73EFE01E0AB
:104A600020469047002070BDD0F82002FDF767B8BF
:104A700010B51F4904460222C1F8A403C0F8201251
:104A80001C4808600820C1E901020020C1E90302B6
:104A9000886108620846FDF751FB20B14FF4A07110
:104AA00015A000F084FA0022D4F820021823114641
:104AB00004F50874FCF7F8FE5823002280212068D2
:104AC000FCF7F2FEC023002281212068FCF7ECFEF7
:104AD0004FF48873002201212068FCF7E5FE4FF4B3
:104AE0008073002282212068FCF7DEFE002010BDCA
:104AF000DC060020005C00402E2E2F5372632F75C1
:104B00007362645F636F6E662E6300000A0601F0D5
:104B10007F01D0F82002C1EBC10100EB810002D57A
:104B200090F82A00704790F8CE01704770B51D4686
:104B300013460024D0F820022A46FDF70AF830B1C7
:104B4000012801D0022801D0022400E001242046DF
:104B500070BD10B50024D0F82002FDF777F930B110
:104B6000012801D0022801D0022400E001242046BF
:104B700010BD70B50022044640231146FFF7D6FF52
:104B800040252B46002280212046C4F81051FFF713
:104B9000CDFF0120256284F8FC01D4F8180228B169
:104BA000D4F814022179426820469047002070BD55
:104BB00090F8FD1180F8FC110020704710B590F8B6
:104BC000FC11032904D1D0F81412C96901B1884736
:104BD000002010BD01740020704710B50024D0F8EB
:104BE0002002FDF742FB30B1012801D0022801D09C
:104BF000022400E00124204610BD70B5044600F5F3
:104C00000270054600F05FF80120C4F8F401B4F822
:104C10000E02C4F8F80194F8080210F01F010AD03F
:104C200001290DD0022910D000F08001204600F0AB
:104C300011F8002070BD2946204600F0AAF8F8E7D8
:104C40002946204600F08CF9F3E72946204600F07B
:104C500019F9EEE710B50024D0F82002FDF749F964
:104C600030B1012801D0022801D0022400E0012443
:104C7000204610BD10B50024D0F82002FDF712FB2D
:104C800030B1012801D0022801D0022400E0012423
:104C9000204610BD90F8FC1180F8FD11042180F829
:104CA000FC110020704710B50024D0F82002FDF759
:104CB00065F930B1012801D0022801D0022400E0BA
:104CC0000124204610BD0A7802704A7842708A7822
:104CD000CB7802EB032242800A794B7902EB032264
:104CE00082808A79C97902EB0121C180704702462E
:104CF000002011B1C2F8141270470220704710B59D
:104D0000D0F8142202241AB11268904700B9002486
:104D1000204610BD70B50E461A4D8978044629709C
:104D2000012928D894F8FC01022802D0032822D1B6
:104D300005E099B10320616084F8FC0109E091B1BC
:104D4000606888420AD0C1B22046FFF77DFC29780E
:104D500061602046FFF7D3FF02280CD02046BDE853
:104D60007040FFF7BABC022084F8FC012046616065
:104D7000FFF76AFCF2E731462046BDE87040FFF7D6
:104D80007ABC0000F000002010B5FFF773FF002090
:104D900010BD2DE9F04100264B78012532460A2B43
:104DA00043D2DFE803F03C584251420805422A272B
:104DB000FFF708FD63E004468888C8B9C888B8B919
:104DC000887800F07F0794F8FC01032810D084F85D
:104DD000FE7139462046FFF700FF2046FFF77DFCB5
:104DE0001FB1022084F8FC0149E084F8FC5146E040
:104DF00020461AE0FFF78EFF41E0CB88012B14D14B
:104E000090F8FC31022B02D0032B0ED104E082601B
:104E1000012200F1080114E00122011D11E090F8C7
:104E2000FC21022A04D0032A02D0FFF724FC26E04A
:104E3000C560D0F8041209B10321C160022200F15B
:104E40000C01FFF73DFC1AE004464888012816D102
:104E5000C4F804520BE0044690F8FC01022801D08B
:104E60000328C5D14888012809D1C4F80422D4F800
:104E700014028268204690472046FFF72EFC3046F9
:104E8000BDE8F08170B50D46044628780026097902
:104E9000C0F34110012806D06878A0B301281FD0C4
:104EA00003283FD107E0D4F814022946826820463F
:104EB0009047002070BD94F8FC01022817D0032809
:104EC0002CD1688828B921B1802902D02046FFF76B
:104ED000C1FED4F81402294682682046904713E0A8
:104EE00094F8FC01022802D0032817D103E0C9B1CD
:104EF00080291BD116E06888A0B9480604D0204656
:104F0000FFF708FDE5E703E02046FFF7E6FB09E0D1
:104F100094F8FC01022807D003280BD0294620462C
:104F2000FFF7A9FB304670BD4806FBD02046FFF7CF
:104F300091FEF7E7080601F07F0004EB001501D5AC
:104F4000143501E005F582752046FFF7DFFD00B15D
:104F500001202860022229462046FFF7B1FBE1E745
:104F600070B5054690F8FC010C4603280DD1207958
:104F700001280AD8D5F81402826828469047E088AC
:104F800030B92846FFF7A9FB02E02846FFF773FB7C
:104F9000002070BD7047000000487047BC0400202E
:104FA0000148FDF753B80000DC060020FEE7FEE7ED
:104FB0000FB4084B10B504A902AA039800F03CFBFB
:104FC000044602A9002000F0CEFE204610BC5DF889
:104FD00014FB0000675D000803B4019841000098CD
:104FE00050EAC12018BF04204A0D18BF40F001004C
:104FF00040F2FF72B2EB515F08BF40F0020001289F
:1050000008BF052002B0704770B59B482DED020B1C
:105010002DED068B079D25F00044A04218DC974833
:10502000844202DC0AD1069840B19DED060BBDEC2E
:10503000068B02B0BDE8704000F00BBA002DCCBF6B
:105040009FED8F0B9FED900BBDEC068B02B070BDFA
:105050008F48A04215DD8F48A042D8BF4FF0FF34E3
:1050600058DD9DED060B51EC100BFFF7B5FF042842
:1050700008BF00F0F9F99DED060BBDEC068B02B000
:1050800070BD9DED060B51EC100B00F071FECDE9EB
:10509000060181489FED828BA0423CDD8248A04200
:1050A0001FDD00249FED82AB9DED060B53EC1A2B08
:1050B00051EC100BFBF71DF99DED060B41EC190BA4
:1050C00053EC1A2B51EC100BFBF7BAF953EC182BDD
:1050D000FBF7B0F953EC192BFBF724FACDE90601E5
:1050E00049E09DED060B012453EC182B51EC100BFD
:1050F000FBF7FFF89DED060B41EC190B53EC182B59
:1051000051EC100BFBF796F953EC192BFBF70AFA4D
:10511000CDE906012FE06848A0421FDD02249FED83
:10512000689B9DED060B53EC192B51EC100BFBF714
:1051300087F953EC182BFBF7DCF89DED060B41ECDF
:10514000180B53EC192B51EC100BFBF773F953ECC4
:10515000182BFBF7E7F9CDE906010CE09DED060BF6
:10516000032453EC102B9FED580B51EC100BFBF765
:10517000D9F9CDE906019DED060B53EC102B51EC4E
:10518000100BFBF75DF941EC180B53EC182BFBF7F8
:1051900057F941EC190B4E480621B0EE490AF0EEE2
:1051A000690A784400F0D9F853EC182B51EC100B35
:1051B000FBF746F941EC180B4648B0EE490AF0EE11
:1051C000690A0521784400F0C8F853EC192B51EC1A
:1051D000100BFBF735F941EC100B51EC180B53ECAD
:1051E000102B002C0EDAFBF784F89DED061B53EC18
:1051F000112BFBF725F99DED061B53EC112BFBF74B
:105200001CF935E0FBF775F89DED061B53EC112BEF
:10521000FBF716F941EC100B2F48784400EBC40063
:1052200090ED001B51EC100B53EC112BFBF702F926
:105230009DED061B53EC112BFBF7FCF841EC100B1A
:105240002648784400EBC40090ED001B51EC100B95
:1052500053EC112BFBF7F1F841EC100B002DA2BF22
:10526000BDEC068B02B070BD51EC100B81F000411B
:1052700041EC100B01E70000000010440000F07F3B
:10528000182D4454FB21F93F182D4454FB21F9BF3C
:105290000000DC3F0000203E0000F33F0000000063
:1052A000000000000000F03F0000E63F00000000AA
:1052B00000000000000000400080034000000000EB
:1052C000000000000000F83F000000000000F0BFF8
:1052D00042170000F8160000821600003A1600007F
:1052E00000B52DED048BB0EE409AF0EE609A83B0DD
:1052F00051EC190BFBF7C1FA41EC180B18EE100A30
:1053000018EE901A8DED008B002818BF012008437D
:1053100020F00040C0F17F6000F1E040C00F14D0E9
:1053200019EE101A19EE900A8DED009B002918BF96
:105330000121084320F00040C0F17F6000F1E0400F
:10534000C00F04BF012000F0AFF8B0EE480A03B070
:10535000F0EE680ABDEC048B00BD70B504462DED7F
:10536000028B4D1E00EBC500B0EE408AF0EE608A65
:1053700090ED000B35F0060017D053EC182B51ECD4
:10538000100BFBF75DF841EC100B6D1E04EBC50034
:1053900090ED001B51EC100B53EC112BFAF7A9FF09
:1053A00041EC100B35F00600E7D1022D36D0042D6C
:1053B0001CD0062D1CBFBDEC028B70BD53EC182B0E
:1053C00051EC100BFBF73CF894ED0A1B53EC112B3E
:1053D000FAF78FFF53EC182BFBF732F894ED081B0C
:1053E00053EC112BFAF785FF41EC100B53EC182B03
:1053F00051EC100BFBF724F894ED061B53EC112B2A
:10540000FAF777FF53EC182BFBF71AF894ED040B1F
:1054100053EC102BFAF76DFF41EC100B53EC182BEB
:1054200051EC100BFBF70CF894ED021B53EC112B15
:10543000FAF75FFF53EC182BFBF702F894ED001B13
:1054400053EC112BFAF755FFBDEC028B41EC100B1E
:1054500070BD10B553EC102B51EC100BFAF749FF4F
:1054600041EC100B10BD00009FED050B10B553EC87
:10547000102B51EC100BFAF7E3FF41EC100B10BDB1
:10548000000000000000001002E008C8121F08C160
:10549000002AFAD170477047002001E001C1121FB5
:1054A000002AFBD1704700000149086070470000E6
:1054B000940200202DE9FF5F82B00021DDE9043075
:1054C000020DDDF840B0034318D044F61050A2F2AC
:1054D000FF3242431514119801281FD0A5EB0B0091
:1054E000401C5FEA000A4FF000064E4FDFF838918B
:1054F000B046504615D5CAF1000413E011980124B6
:105500004AA3012801D16FEA0B010298119AC0E960
:105510000031C0E9024206B0BDE8F09FCBF10000C7
:10552000DFE704460021404A491842EB0450CDE928
:10553000001012E0E00707D032463B46404649469D
:10554000FAF77EFF8046894632463B4610461946AA
:10555000FAF776FF06460F466410002CEAD1DDE923
:105560000401DDE90023BAF1000F06DAFAF768FF5B
:1055700042464B46FAF764FF05E0FAF7D3FF42468E
:105580004B46FAF7CFFF04460E460022284BFBF7A6
:10559000DDF903D84FF0FF30014607E00022254B2C
:1055A00020463146FAF7A5FEFBF7B8F9102409E0CA
:1055B000002C0ADB0A220023FBF779F8039B303228
:1055C0001A55641E50EA0102F2D1641C039AC4F118
:1055D00011031444119A012A03D0012208430DD16A
:1055E0000AE0084304D000204FF0110B119072E73D
:1055F000A3EB0B056D1E0DE05B4504DD4FF00002D3
:1056000005F1010504E003DA4FF00002A5F1010500
:10561000002AECD002981199C0E90231C0E9004596
:1056200079E70000000014400000F03F3000000067
:105630000000F0430000E03F2DE9FF4F95B09B468E
:105640008946064600250FE2252877D10024274603
:10565000F84A0121059400E0044316F8013F203B7D
:1056600001FA03F01042F7D130782A2811D06FF0F8
:105670002F033078A0F13002092A16D8059A44F099
:10568000020402EB820203EB42021044761C0590F6
:10569000EFE759F8042B0592002A03DA504244F44C
:1056A0000054059044F00204761C30782E2816D160
:1056B00016F8010F44F004042A280DD06FF02F02D1
:1056C0003078A0F13003092B09D807EB870302EBF0
:1056D0004303C718761CF3E759F8047B761C30782F
:1056E0006C280FD006DC4C2817D068280DD06A280B
:1056F00014D104E0742810D07A280FD10DE044F4BE
:1057000000140AE044F4801401E044F44014727878
:10571000824202D104F58014761C761C307866280B
:105720000BD013DC582877D009DC002875D0452829
:10573000F6D04628F4D047281AD19DE118E0632816
:1057400035D0642879D0652812D195E1702873D0BE
:1057500008DC6728F1D069286FD06E280DD06F283B
:1057600006D1B5E073282CD0752875D0782874D070
:105770005A46179990476D1C75E1C4F302500228F0
:1057800009D003280DD0D9F8001004280DD00D60E1
:1057900009F1040967E1D9F80010EA17C1E90052DC
:1057A000F6E7D9F800100D80F2E70D70F0E719F870
:1057B000041B8DF8001000208DF80100EA4601203E
:1057C00003E059F804AB4FF0FF3061074FF00001E0
:1057D00002D40DE008F101018846B9420FDA804594
:1057E000F8DB1AF808100029F4D108E008F10101EB
:1057F00088468142FADB1AF808100029F6D105988C
:105800005B46A0EB080721463846179A00F094FA49
:10581000284400EB080507E04DE029E10DE01AF807
:10582000010B5A4617999047B8F10108F7D25B4629
:1058300021463846179A13E142E00A220092C4F347
:1058400002524FF0000A022A08D059F804CB032A6A
:105850004FEAEC710AD00DE029E02AE009F10701D6
:1058600021F00702F2E802C1914609E00FFA8CFC30
:105870004FEAEC71042A03D14FFA8CFC4FEAEC7129
:10588000002907DA0A460021DCF1000C61EB020175
:105890002D2202E0220504D52B228DF804200122BE
:1058A00003E0E20701D02022F7E7904659E00A2101
:1058B00002E010220DE010214FF0000A00910BE0F1
:1058C00010224FF0000A44F004040827009203E07D
:1058D00008224FF0000A0092C4F30252022A05D0B7
:1058E00059F804CB0021032A08D009E009F1070187
:1058F00021F00702F2E802C1914605E01FFA8CFC94
:10590000042A01D10CF0FF0C4FF00008220728D523
:10591000702806D0009B83F0100353EA0A0305D0D9
:105920000EE040228DF80420012208E05CEA01022A
:1059300006D030228DF804208DF805000222904612
:10594000009B83F0080353EA0A030AD15CEA0102D0
:1059500001D1620705D530228DF804204FF00108EF
:105960007F1E582804D034A003900EA802900DE0AA
:1059700036A0F9E753466046009AFAF798FE844647
:105980000398825C0298401E029002705CEA01005B
:10599000F0D1029806A9081A00F1200A600702D582
:1059A00024F4803400E00127574502DDA7EB0A000C
:1059B00000E0002000EB0A01009005984144401AE5
:1059C0000590E00306D45B462146179A059800F03F
:1059D000B3F90544002706E001A85A46C05D1799AF
:1059E00090476D1C7F1C4745F6DBE0030CD55B46FA
:1059F0002146179A059800F09FF9054404E03020ED
:105A00005A46179990476D1C0099481E009000292E
:105A1000F5DC08E0029802995A460078491C029188
:105A2000179990476D1CBAF10001AAF1010AF1DC47
:105A300065E1000009280100303132333435363752
:105A400038396162636465660000000030313233CA
:105A5000343536373839414243444546000000006A
:105A600000F058F90544761C307800287FF4ECAD3E
:105A700019B02846BDE8F08F620700D4062709F167
:105A8000070222F0070CFCE80223E14603F000487D
:105A90005FEA080C02D00FF2702C0DE05FEA045CA4
:105AA00002D50FF2682C07E05FEAC47C02D00FF247
:105AB000602C01E0AFF2700C4FF0FF3823F0004390
:105AC000CDF850C065280CD006DC452809D0462802
:105AD0001DD047283DD13DE0662818D067287ED1EB
