:020000040800F2
:100000005829002059020008A15000087940000832
:100010008150000821120008816C000800000000D7
:100020000000000000000000000000009D0100082A
:100030001114000800000000F10100080157000839
:1000400073020008730200087302000873020008BC
:1000500073020008730200087302000873020008AC
:10006000730200087302000873020008730200089C
:10007000730200087302000873020008730200088C
:10008000730200087302000873020008730200087C
:10009000756C000873020008730200087302000800
:1000A000730200087302000873020008730200085C
:1000B0001958000873020008730200087302000850
:1000C000730200087302000873020008730200083C
:1000D000730200087D600008C16000087302000818
:1000E000730200087302000873020008730200081C
:1000F000730200087302000873020008730200080C
:100100000000000000000000000000007302000872
:1001100073020008730200087302000873020008EB
:1001200073020008730200087302000873020008DB
:1001300073020008730200080000000000000000C5
:100140007302000873020008730200080000000038
:10015000000000000000000000000000000000009F
:100160000000000000000000730200087302000895
:100170007302000800000000000000000000000002
:100180000000000073020008DFF80CD000F0A4FCAF
:10019000004800479D7E0008582900202B4B196815
:1001A0000868B0E8F04F80F30988BFF36F8F4FF015
:1001B000000080F3118870470000000006480068C6
:1001C000006880F3088862B661B6BFF34F8FBFF353
:1001D0006F8F00DF00BF00BF08ED00E0DFF80C000C
:1001E000016841F470010160704700BF88ED00E0D4
:1001F000EFF30980BFF36F8F144B1A681EF0100FD6
:1002000008BF20ED108A20E9F04F106008B44FF0CD
:10021000500080F31188BFF34F8FBFF36F8F08F04A
:1002200075FB4FF0000080F3118808BC196808685E
:10023000B0E8F04F1EF0100F08BFB0EC108A80F34A
:100240000988BFF36F8F704700BF00BF2C010020EB
:10025000EFF30580704700000648804706480047D6
:10026000FEE7FEE7FEE7FEE7FEE7FEE7FEE7FEE766
:10027000FEE7FEE7B157000889010008202A04DBE9
:10028000203A21FA02F00021704721FA02F3D0400F
:10029000C2F12002914008431946704740EA010329
:1002A0009B0703D009E008C9121F08C0042AFAD22C
:1002B00003E011F8013B00F8013B521EF9D27047F0
:1002C000D2B201E000F8012B491EFBD27047002298
:1002D000F6E710B513460A4604461946FFF7F0FF45
:1002E000204610BD421C10F8011B0029FBD1801ACA
:1002F000704770B5064606F047FD046805460A22B9
:100300000021304600F09AFA2C6070BD2DE9FE4FB6
:10031000804681EA0300C00F0C46009021F00041A6
:1003200023F00045B8EB0200A94105D24046214622
:1003300090461C460B46024623F00040104347D02F
:10034000270DC7F30A00C3F30A510290401A019027
:1003500040286BDAC3F3130040F4801B00989246E8
:1003600020B10023D2EB030A63EB0B0B0198594633
:10037000C0F14002504600F0F1F906460D465046E5
:100380005946019A00F0F9F910EB08006141002488
:1003900087EA115284EAE7731A4340D0009A62B3A5
:1003A000019A012A4FEA075215DC001B61EB02019A
:1003B0004FF0004202EA0752CDE90042001C41F52D
:1003C000801132462B4600F0B7FA03B0BDE8F08F3B
:1003D00040462146F9E7001B61EB0201001C41F594
:1003E000801300185B412018A2F5001747EB0301AA
:1003F00040EAD570B6196D4111E06D084FEA360636
:1004000045EAC0754FEA0752001B61EB0201001C70
:1004100041F5801149084FEA300000195141324638
:100420002B4603B0BDE8F04F00F077BA00980122E8
:1004300040000023D0EB020263EBE07300982146FA
:100440004FEAE074B8EB000061EB0401E9E783F0E8
:1004500000435BE781F0004158E72DE9FE4F81EA58
:10046000030404F0004421F0004100944FF0000B1D
:1004700023F0004350EA01045ED052EA03045BD04B
:10048000C3F30A54C1F30A552C44A4F2F334019483
:10049000A0FB0254C1F3130141F48011C3F3130311
:1004A00043F4801301FB024400FB034E840A970AC5
:1004B00044EA815447EA8357A4FB076802958D0AF2
:1004C00005FB07854FEA932C04FB0C542705029D7E
:1004D0004FEA065847EA1637B5EB08056EEB070CEE
:1004E000870E920E47EA811742EA8312A7FB0201A8
:1004F000B6EB0B0164EB00042B0D43EA0C335E18E2
:1005000044EB1C50DA465146E7FB0201C5F31304E5
:100510004FEA0B3343EA14534FEA0432019C43EA97
:100520000603A4F10C040294009CCDE900B400F091
:1005300003FA03B0BDE8F08F00200146F9E72DE98A
:10054000F04D81EA030404F0004B21F0004514460D
:100550004FF0000A23F0004150EA050220D054EA8F
:1005600001021DD0C5F30A570246C5F31303C1F3B8
:100570001300C1F30A5640F4801543F48013A7EB2F
:100580000608101BD64608F2FD3873EB050002D3AF
:1005900008F1010801E092185B41B8F1000F03DA9D
:1005A00000200146BDE8F08D00204FF48011064682
:1005B00084460EE0171B73EB050705D3121B63EB94
:1005C000050306434CEA010C49084FEA3000921833
:1005D0005B4150EA0107EDD152EA030012D082EAF2
:1005E000040083EA0501084305D0101BAB4106D285
:1005F0000122002306E000224FF0004302E06FF0EA
:10060000010253101AEB06004CEB085110EB0A00E4
:1006100041EB0B01BDE8F04D00F07FB90EB5C10F05
:1006200080EAE0700844CA07002140F233438DE8B5
:100630000E000A460B4600F07FF903B000BDC1F37F
:100640000A5210B5C1F3130140F2FF3341F4801197
:100650009A4201DA002010BD40F233439A42A2F2DE
:10066000334203DC5242FFF709FE10BD904010BD3B
:1006700000F0004230F000400AD0C10D01F5607179
:10068000C0F3160042EA0151C20840071143704707
:1006900000200146704701F0004330B421F00041D2
:1006A00050EA010206D00A0DA2F56072C1F31301EF
:1006B000002A02DC30BC00207047440F44EAC10429
:1006C000C100E01830BC00EBC25000F0EFB830B50C
:1006D0000B46014600202022012409E021FA02F500
:1006E0009D4205D303FA02F5491B04FA02F528449A
:1006F000151EA2F10102F1DC30BD2DE9F05F0546C7
:10070000002092469B4688460646814640241BE0D0
:100710002846414647462246FFF7B0FD53465A4613
:10072000C01A914110D311461846224600F016F81F
:100730002D1A67EB01084F4622460120002100F0E8
:100740000DF817EB00094E41201EA4F10104DFDC77
:10075000484631462A464346BDE8F09F202A04DB3E
:10076000203A00FA02F1002070479140C2F12003C4
:1007700020FA03F3194390407047202A06DBCB1779
:10078000203A41FA02F043EAE07306E041FA02F34C
:10079000D040C2F120029140084319467047000042
:1007A0000FB4002300B589B00CA900910B996FF02C
:1007B0000042CB601E4B06931E4B07930423CDE9EA
:1007C00001321D4A089202466B46002000F038FABA
:1007D00009B05DF814FB70B586B006464FF0FF30E7
:1007E0000091CDE90101002015460C4604903246E7
:1007F000694604A8FFF7D4FF02460498211825B1E2
:1008000008B1084600E020462860049800280DD072
:10081000002A02DD0098884208D0081B0094CDE928
:1008200001043246694604A8FFF7BAFF06B070BD5E
:10083000790E0008970E0008050B00082DE9F04717
:1008400091460F4680460446002614F8015B2DB100
:1008500000F054F90068405DC007F6D12B2D02D09E
:100860002D2D18D0641E4A463946204600F024FB40
:1008700027B13968A14201D1C7F8008071054FF056
:1008800002040BD54042002803DD06F07DFA046027
:10089000A007BDE8F08746F48066E4E70028F8DAB0
:1008A00006F072FA04606FF00040F2E70029A8BF7A
:1008B0007047401C490008BF20F00100704710B489
:1008C000B0FA80FC00FA0CF050EA010404BF10BC3E
:1008D000704749B1CCF1200421FA04F411FA0CF16B
:1008E00018BF012121430843A3EB0C01CB1D4FEAA4
:1008F00000614FEA102042BF002010BC704700EB9F
:10090000C35010440029A4BF10BC7047401C4900CC
:1009100008BF20F0010010BC704710B5141E73F121
:10092000000408DA401C41F1000192185B411A43AF
:1009300001D120F0010010BD2DE9F04D92469B46FB
:1009400011B1B1FA81F202E0B0FA80F220329046A1
:10095000FFF704FF04460F4640EA0A0041EA0B0194
:1009600053465A46084313D0114653EA010019D0A2
:10097000C8F140025046FFF781FC05460E4650463E
:1009800059464246FFF7EAFE084305D0012004E03D
:1009900020463946BDE8F08D0020054346EAE07662
:1009A0002C4337430A986305E40AA0EB08000022B1
:1009B000FD0A44EA47540A3002D500200146E9E71F
:1009C000010510196941DDE9084500196941BDE8D3
:1009D000F04DA2E72DE9F04D00231A461B1A8A417B
:1009E00003DB00200146BDE8F08DC1F30A52C1F3DC
:1009F000130141F480154FF0000BD10702D100180C
:100A00006D41521E0027044640F2FF11384601EBAB
:100A1000620A3E468046024600204FF48011FFF7EE
:100A20002DFCC2197141BB1846EB0100B4EB030C5D
:100A300075EB000C04D3E41A65EB000517460E466F
:100A4000241908F101006D4180463428E3DDF919CD
:100A500046EB0600091BA84103D24FF0FF321346B4
:100A600001E0002213461BEB070046EB0A51BDE8EC
:100A7000F04DFFF752BFC1F30A52C1F3130140F228
:100A8000FF3341F480119A4202DA00200146704798
:100A900040F233439A42A2F2334202DC5242FFF761
:100AA000EDBBFFF75BBE000030B5041E71F1000422
:100AB00004DB4FF00044404264EB0101141E73F16B
:100AC000000405DB1C464FF00043524263EB040375
:100AD000994208BF904230BD064C074D06E0E068E1
:100AE00040F0010394E8070098471034AC42F6D375
:100AF000FFF74EFB748E0008948E00080048704784
:100B0000048E000810B50446FFF7F8FF0068005D8A
:100B100000F0010010BD00002DE9FF4F087883B000
:100B20009946FF2805D0491C2D2804D00024002018
:100B300008E000200BE00124F9E700EB800003EB64
:100B40004000491C0B78FF2BF7D104B14042002331
:100B50000293147819461D462D2C01D02B2C04D15C
:100B6000521C2D2C13D000240294AA461478FF2C7A
:100B70000FD00A25A3FB057801FB05814FF0000C7F
:100B800003FB0C11521CE3194AEB0101EEE70124AF
:100B9000EAE7814453EA010002D019F5C87F06DA7A
:100BA00003980021C0E9001107B0BDE8F08F0025CF
:100BB000AE4E2F46DFF8B882184600F0DAF9CDE9DC
:100BC0000001B9F1000002DAC9F1000400E00446B6
:100BD0000023A74A1AEB030B42EB045A12E0E0078A
:100BE00007D02A46334638464146FFF736FC0746CB
:100BF00088462A46334610461946FFF72EFC05461E
:100C00000E466410002CEAD1DDE90001B9F1000FB5
:100C10005A46534606DAFFF792FC3A464346FFF738
:100C20008EFC05E0FFF719FC3A464346FFF715FC3A
:100C3000029A0AB181F00041039AC2E90001B3E7C8
:100C40002DE9FF4F1F468DB0D7E901464FF0FF3821
:100C50002E2045464FF000090B90B9696D1C0E9887
:100C60008847396A824688470028F6D1BAF1FF3FA3
:100C70000AD024F4D064002E11DDBAF12B0F08D075
:100C8000BAF12D0F0BD102E0404611B08DE744F4CC
:100C90008064B9696D1C0E9888478246761E694645
:100CA000600501D52D2000E02B208DF8000001F11A
:100CB000010B0DF1200809E0B9696D1C0E988847F9
:100CC00082460F9844F40074761E0560002E02DD03
:100CD000BAF1300FF0D00B998A453ED144F0800430
:100CE00006E00F99681CA9F1010944F4007408603A
:100CF000B9696D1C761E0E98884782463028F0D060
:100D00002BE00B998A4505D1200603D444F08004DA
:100D1000761E18E0504606F075FB08B30DF113017E
:100D2000761E44F400748B4508D2AAF130000BF80B
:100D3000010B200607D5A9F1010003E0200602D42B
:100D400009F101008146A00502D50F99681C0860D1
:100D5000B9696D1C0E9888478246002ED1DC53E09D
:100D6000002E51DDBAF1650F02D0BAF1450F4BD11B
:100D7000A00549D5B9696D1C24F44074761E0E98FF
:100D800088478246002E0CDD2B2804D0BAF12D0FA7
:100D900007D144F48074B9696D1C0E988847824667
:100DA000761EE00501D52D2100E02B2108F8011B5E
:100DB000CDF82C8021E00DF12901761E44F4007459
:100DC00088450CD2AAF1300010F0FF0088F800002E
:100DD00002D10B99884509D908F1010806E0E00520
:100DE00001D5244801E042F20F708146B9696D1CBB
:100DF0000E98884782460F980560002E04DD504605
:100E000006F000FB0028D6D1F9690E988847FF202C
:100E10008BF8000088F800000020069007904B46F1
:100E20006A4608A906A8FFF777FEA00502D46FF06E
:100E300001002AE714F0240F0AD0E00714D1DDE9FD
:100E400006123868031D3B600068C0E900120BE021
:100E5000DDE90601FFF71FFC0146E00704D1386811
:100E6000021D3A600068016028460EE70000144049
:100E70000000F03FF1D8FFFF426842B1016811F86D
:100E8000013B23B1521EC0E90012184670470121F0
:100E9000C160881E704742685AB1C368016843B98F
:100EA00083688B4205D0491E521CC0E90012002005
:100EB00070474FF0FF3070472DE9F05F82460078B1
:100EC000002715468B460AF10104B946302801D0A7
:100ED0009DB113E014F8010B0127782803D058289E
:100EE00001D045B10AE00DB1102D07D10027102522
:100EF00014F8010B02E0082500E00A250026B046A0
:100F00000EE005FB080005FB06F1012701EB10468A
:100F10001FFA80F8B6F5803F00D3B94614F8010BEC
:100F2000294600F018F80028EBDABBF1000F05D0D5
:100F30000FB1641E00E05446CBF80040B9F1000F39
:100F400006D005F021FF02210160C81EBDE8F09F18
:100F500048EA0640FAE73A2800D2303820F020026A
:100F6000412A01D3A2F13700884201D34FF0FF306C
:100F700070470EB540F2334202920022CDE90022C2
:100F80001346FFF7D9FC03B000BD70B58C1810F8FC
:100F9000015B15F0070301D110F8013B2A1106D1BE
:100FA00010F8012B03E010F8016B01F8016B5B1ED8
:100FB000F9D12B0705D40023521E0DD401F8013BB3
:100FC000FAE710F8013BCB1A921C03E013F8015B1F
:100FD00001F8015B521EF9D5A142D8D3002070BDA3
:100FE00070B51A4D044602464FF40041284600F001
:100FF00051FC22464FF48041284600F04BFC22462B
:101000004FF40051284600F045FC22464FF4805131
:10101000284600F03FFC22464FF40061284600F0CD
:1010200039FC22464FF48061284600F033FC22460A
:101030004FF40071284600F02DFC22462846BDE8FA
:1010400070404FF4807100F025BC00000010004893
:101050002DED0A8B84B000F0A1F800F0C1F806F085
:10106000D1FE012506F0A6FD3D4C0A2084ED040AC0
:1010700006F05CFF9FED3BAB9FED3CBB9FED3DCB96
:101080003E4E3F4FDFF8FC904FF40068032000F025
:1010900043FA06F055FE84ED010A684600F096F822
:1010A0009DED000A84ED060A9DED010A84ED070A14
:1010B0009DED020A84ED020A25B194ED040A002593
:1010C00084ED080A6068FFF7D3FA53EC1A2BFFF798
:1010D000C4F941EC180B206AFFF7CAFA94ED060A2E
:1010E00041EC190B10EE100AFFF7C2FA53EC1B2B60
:1010F000FFF7B3F953EC192BFFF708F953EC1C2B4E
:10110000FFF7ABF953EC182BFFF700F9FFF7C3FA21
:1011100000EE100A84ED080AD6ED000A30EE600AEF
:1011200084ED030A07F056FA387820B994ED030AE3
:10113000124806F00BFD94ED030AB5EEC00AF1EE7D
:1011400010FA01DAB1EE400A0C4807F05FFA0A2003
:1011500006F0ECFE4146484600F098FB96E700009A
:101160000000002000AAF1D24D62503FF168E388F0
:10117000B5F8E43E2B8716D9CEF7EF3FD402002016
:10118000290000200010004803490968896A0029E5
:1011900000D0084770470000F800002070B5094DE6
:1011A00001246868804733280AD1074C40F647007D
:1011B00025602968884721689020096A88470024AB
:1011C000204670BDCC000020F800002003490968CB
:1011D000896A002900D0084770470000FC00002001
:1011E00070B50D4C012560688047D42803D0606835
:1011F0008047D5280ED1094D41F23F002C6021686F
:10120000884729680920096A88472868416A1020A8
:1012100088470025284670BDA0000020FC00002063
:10122000064D4FF400544FF47A762146284600F0DC
:101230002DFB304600F0C6F9F7E70000001000482B
:10124000002070470020704710B50022044905486F
:1012500005F00CF80449034805F002F8002010BD21
:101260008C130020B8050020A40F002010B5014603
:101270000C4804F0F5FF0B4804F0D6FF0AA10F4814
:1012800005F046FD0D48FFF72DF881B20B4800F040
:1012900017F830224FF47A710848FFF711F8002050
:1012A00010BD0000B80500202D2D2D2D2D2D2D2D2C
:1012B0002D2D2D2D2D200D0A000000008C13002057
:1012C000094A10B5D2F81822D2F814220AB1012026
:1012D00010BD0A460146044804F0C8FFBDE81040AE
:1012E000014805F003B80000B8050020104800B51B
:1012F000416987B041F4001141614069694600F4D9
:1013000000100590302000900A48019003200390BF
:1013100000200290084800F0F5F9002211460A204A
:1013200000F0D8FD0A2000F0C7FD07B000BD0000A6
:1013300000100240000011100010004870B519485C
:1013400086B0416941F400114161416901F4001125
:101350000591416941F4001141614069002400F4A4
:10136000001005900420CDE900040F4E03256946C6
:101370003046CDE9024500F0C5F9002211460820AB
:1013800000F0A8FD082000F097FD3020CDE9000412
:1013900069463046CDE9024500F0B4F902F0E2FFBB
:1013A00006B070BD00100240001000481FB50A468C
:1013B00001460020084C8DF80C000123A46803A806
:1013C0008DE81900054800F03DFB08B102F0C0FFB0
:1013D0009DF80C0004B010BD00010020181800207A
:1013E0001FB51346084C0A468DF80C300146A46818
:1013F000012303A88DE81900044800F0DBFB002856
:1014000001D002F0A5FF1FBD000100201818002028
:1014100070470000F0B5184C87B0606940F40010C8
:101420006061606901AA00F4001005900820009036
:1014300001200025032682E86100104F69463846E6
:1014400000F060F901220821384600F023FA6069B3
:1014500040F4001060616069CDE9025600F40010AC
:1014600005900620CDE900056946384600F04AF9A6
:1014700004F0B2F807B0F0BD0010024000100048C0
:101480002DE9F04114460546012A02D941F0C00673
:1014900001E041F080060D4F00220821384600F09F
:1014A000F9F9304604F0E2F806E0002004F0DEF836
:1014B000641E05F8010BA4B2002CF6D13846BDE835
:1014C000F0410122082100F0E5B9000000100048B9
:1014D0002DE9F041144605460E46012A01D941F096
:1014E00040060C4F00220821384600F0D3F9304660
:1014F00004F0BCF805E0287804F0B8F8641EA4B243
:101500006D1C002CF7D13846BDE8F04101220821BE
:1015100000F0C0B9001000482DE9F041154D044617
:101520004FF4006600223146284600F0B3F9B700B8
:1015300000223946284600F0ADF94FF40048002259
:101540004146284600F0A6F9012C0AD0022C0BD007
:10155000032C0CD1012241462846BDE8F04100F0A1
:1015600099B901223146F7E701223946F4E7BDE88F
:10157000F08100000004004810B590F8211000240C
:10158000022903D004218163012418E001680A685C
:1015900022F00E020A6001680A6822F001020A6065
:1015A00090F84020C36B012101FA02F25A6080F8E2
:1015B0002110002180F82010416B01B1884720469E
:1015C00010BD000070B5044600F06AF90546601CC5
:1015D00002D004480078044400F062F9401BA042A5
:1015E000FAD370BD900000202DE9F04F00230127B1
:1015F0000F24DFF8F8A073E007FA03F616EA0102F9
:101600006DD005684FEA43084FF0030C0CFA08FC54
:1016100025EA0C050560DD0800EB8508C346D8F80F
:1016200020905D074FEAD56804FA08F529EA050914
:10163000CBF82090856825EA0C0585604568B543A0
:101640004560C56825EA0C05C56023F0030606EB76
:101650000A05D5F808C09E07360F04FA06F909EA0C
:101660000C08B0F1904F06D0DFF884C0604505D17A
:101670004FF0010C19E04FF0000C16E0DFF874C0D9
:10168000604502D14FF0020C0FE0DFF86CC06045FE
:1016900002D14FF0030C08E0DFF860C0604502D1D2
:1016A0004FF0040C01E04FF0050C0CFA06FCC445A9
:1016B00015D1D5F808C02CEA090CC5F808C0104EA1
:1016C000356895433560361D356895433560351D61
:1016D0002E6896432E602D1D2E6896432E605B1C4F
:1016E00031FA03F288D1BDE8F08F0000000001401C
:1016F0000004004800080048000C004800100048A2
:10170000000401402DE9F84FDFF864B100234FF0E9
:10171000010C4FF0030A4FF00F090BF1040EA0E08B
:101720000CFA03F6324072D04C68022C01D0122C15
:101730000ED1DC0800EB8408D8F820405D07EF0EDE
:1017400009FA07F5AC430D69BD402543C8F82050A0
:1017500007685D0091F804800AFA05F408F00308B0
:10176000A74308FA05F848EA0708C0F800804F6860
:10177000012F05D0022F03D0112F01D0122F11D12C
:101780008768D1F80C80A74308FA05F848EA0708EB
:10179000C0F808804768B7430E79C6F300169E402C
:1017A0003E434660C668A6438C68AC403443C46080
:1017B0004C68E40054D52F4CA56945F00105A5619E
:1017C000A46923F0030504F0010400942A4C2E19A7
:1017D000B4689D072F0F09FA07F5AC43B0F1904F9D
:1017E00004D0264DA84203D1012512E0002510E0C7
:1017F000234DA84201D102250BE0224DA84201D180
:10180000032506E0204DA84202D1042501E027E08F
:101810000525BD402543B560DBF800405D464E68B8
:101820009443F60300D514432C60DEF8004075465F
:101830004E689443B60300D514432C600C4D083514
:101840002C684E689443F60200D514432C60084D72
:101850000C352C684E689443B60200D514432C60B6
:101860005B1C0A6832FA03F47FF45AAFBDE8F88FC4
:101870000004014000100240000001400004004844
:1018800000080048000C00480010004842694A4027
:10189000426170470AB18161704781627047000000
:1018A00001488068704700009000002090F84120B7
:1018B000202A24D190F84020012A20D0012280F84B
:1018C0004020242280F841200268136823F001039D
:1018D00013600268136823F480531360026813686E
:1018E0000B43136001680A6842F001020A6020217C
:1018F00080F84110002180F840100846704702200F
:10190000704790F84120202A22D190F84020012AE7
:101910001ED0012280F84020242280F84120026855
:10192000136823F0010313600268136823F47063E3
:1019300043EA0121116001680A6842F001020A606D
:10194000202180F84110002180F84010084670479F
:101950000220704710B5040013D0242084F8410001
:101960002068016821F001010160204600F0D6F9ED
:101970000020606484F8410044F8300FA0742074A3
:1019800010BD012010BD90F84100704770B50400F3
:1019900004D094F84100002510B106E0012070BD8C
:1019A00084F84050204600F0CDF9242084F841000E
:1019B0002068016821F0010101606068216820F061
:1019C000706008612068816821F400418160E068EE
:1019D0000128A06807D040F4044021688860E068CE
:1019E000022803D006E040F40040F6E721684FF4F7
:1019F0000060486020684168114A114341602068D6
:101A0000C16821F40041C160D4E904010843A1691F
:101A100040EA01202168C860D4E907010843216831
:101A200008602068016841F00101016065642020C0
:101A300084F84100256384F84250002070BD000006
:101A4000008000022DE9FF4F83B00446DDE91087D6
:101A500090F84100DDF848909A469346202874D1CA
:101A60005FEA080072D0002F70D094F8400001287F
:101A70006BD0012084F84000FFF712FF06460122D8
:101A800000901923D103204602F0E8FB002874D10E
:101A9000222084F84100402084F84200002565643B
:101AA000C4F8248067856563CDE9009653465A469D
:101AB0002046049902F04CFB28B1606C84F8405039
:101AC00004285ED059E0618D3848FF274FF08078B8
:101AD0004FF0007AFF2904D927853A464346009003
:101AE00005E0618D2185009094F82820534620461A
:101AF000049902F09DFB4B460022042120460096EB
:101B000002F0ACFBC8BB2068416A606A421C62629A
:101B10000170208D401E0004000C2085618DA1F114
:101B2000010161851DD1608DD8B14B460022802115
:101B30002046009602F092FBF8B9608DFF2806D986
:101B400027853A464346009507E02CE019E0608D72
:101B50002085009594F8282053462046049902F0E9
:101B600067FB608D0028C6D132464946204602F008
:101B70009EFB40B1606C042803D0032007B0BDE891
:101B8000F08F0120FAE721682020C86121684A68A7
:101B9000074B1A404A6084F8410084F8425084F8A8
:101BA00040500020EAE70220E8E70000002400801F
:101BB00000E800FE2DE9FF4F83B00446DDE9108701
:101BC00090F84100DDF848909A469346202870D15D
:101BD0005FEA08006ED0002F6CD094F84000012816
:101BE00067D0012084F84000FFF75AFE0646012224
:101BF00000901923D103204602F030FB002854D175
:101C0000212084F84100402084F8420000256564CA
:101C1000C4F8248067856563CDE9009653465A462B
:101C20002046049902F0CCFA28B1606C84F8405048
:101C300004286CD039E0608DFF274FF080784FF09A
:101C4000007AFF2804D927853A464346009505E0E7
:101C5000608D2085009594F82820534620460499ED
:101C600002F0E6FA32464946204602F047FB18B138
:101C7000606C04284BD018E0606A411C61622168E6
:101C800000788862608D401E6085208D401E0004B3
:101C9000000C208521D1608DF8B14B4600228021B7
:101CA0002046009602F0DAFA28B1032007B0BDE81A
:101CB000F08F2EE02BE0608DFF2804D927853A466F
:101CC0004346009505E0608D2085009594F8282016
:101CD00053462046049902F0ABFA608D0028C1D12A
:101CE00032464946204602F0E2FA0028C0D1216877
:101CF0002020C86121684A68074B1A404A6084F86E
:101D0000410084F8425084F840500020CEE7012082
:101D1000CCE70220CAE7000000E800FE00680649A0
:101D2000884208D10548C16921F40011C161C02170
:101D30000348FFF759BC70470054004000100240B0
:101D40000004004800B500680E4987B0884216D1EB
:101D5000C0200090122001900120029003200390E7
:101D60000420049069460848FFF7CCFC0748C16985
:101D700041F40011C161C06900F40010059007B082
:101D800000BD000000540040000400480010024064
:101D900002488168027811448160704790000020F9
:101DA000074810B5016841F010010160032000F000
:101DB000B1F8002000F006F800F03EF8002010BD59
:101DC0000020024000B5014687B000221C2000F030
:101DD00081F81C2000F070F81448C16941F001013D
:101DE000C161C06905A900F001000690684600F0D5
:101DF00067FF00F08BFF0E494000B0FBF1F10D488A
:101E00004FF08042491E0260416040F2E7320021FB
:101E1000C0E90321816001F009FD10B1012007B084
:101E200000BD044801F03EFDF9E70000001002404B
:101E300040420F00741700201E4808B5816941F028
:101E400001018161816901F001010091C16941F0E5
:101E50008051C161C06900F080500090032000F003
:101E600059F8002211466FF00B0000F033F8002201
:101E700011466FF00A0000F02DF8002211466FF0B5
:101E8000090000F027F800221146501F00F022F848
:101E900000221146101F00F01DF800220F21901E95
:101EA00000F018F800220F21BDE80840501E00F095
:101EB00011B8000000100240002809DB00F01F02EA
:101EC000012191404009800000F1E020C0F800119C
:101ED00070470000F0B40E4B1B680C46C3F302239E
:101EE000C3F10705042D00D90425191D072901D2C6
:101EF000002300E0DB1E012606FA05F1491E214001
:101F000099409E40761E16403143F0BC04F02CBF31
:101F10000CED00E0064900F0070208684FF6FF03E9
:101F2000184040EA0220034A10430860704700004E
:101F30000CED00E00000FA0510B50C0607D501F025
:101F40007F01C1EBC10100EB8100283005E0C1EB4E
:101F5000C10100EB810000F5E67099B232B10122B7
:101F60008272C180190C0181002010BD0022827292
:101F70008180F9E77047C1EBC10200EB8202D0F823
:101F8000A403926B04F050BBC1EBC10200EB8202D0
:101F9000D0F8A403D2F8DC2104F09BBB2DE9F04378
:101FA00001F07F03C3EBC3020C0600EB820201D5F4
:101FB000283201E002F5E672C9091370517090F8F9
:101FC0007013012946D0012180F87013977A48F6E2
:101FD000BF76002F577848F280034BF68F7948F28E
:101FE000C0044CF2800548F68F7136D08FB3177855
:101FF000D0F800C03CF827805FEA484807D53CF895
:10200000278008EA010848EA05082CF82780177895
:10201000D0F800C03CF827805FEA486807D53CF854
:10202000278008EA010848EA04082CF8278092F87B
:1020300000C0076837F82C400C402C4327F82C4090
:102040001478056835F824103140194325F8241018
:1020500025E032E00220BDE8F083A7B117780568DB
:1020600035F827C05FEA4C6C07D535F827C00CEA75
:10207000010C4CEA040C25F827C01278046834F8E7
:102080002210314011E01678046834F826707F047D
:1020900005D534F826700F402F4324F826701278A7
:1020A000046834F8221001EA0901194324F82210C7
:1020B000002180F870130846CDE792F800C0076849
:1020C00037F82C805FEA484807D537F82C8008EAB3
:1020D000010848EA050827F82C801778056835F8C4
:1020E00027C05FEA4C6C07D535F827C00CEA010C15
:1020F0004CEA040C25F827C01578D0F800C03CF84D
:1021000025700F4027432CF825701578046834F8A3
:10211000251001EA0901194324F82510ADE7F0B5AF
:102120000A0601F07F0305D5C3EBC30200EB820270
:10213000283205E0C1EBC10200EB820202F5E67233
:10214000002494701370C909517090F8701301291C
:1021500021D0012180F8701351780368002911788B
:1021600048F68F7648F2800533F8217015D07F0647
:1021700007D533F82170374048F2C006374323F8BB
:1021800021701278036833F8221048F6BF76314088
:1021900081F0300114E00220F0BD7F0407D533F850
:1021A000217037404CF28006374323F821701278B3
:1021B000036833F822104BF68F76314081F440519A
:1021C000294323F8221080F870430020F0BD01F06D
:1021D0007F01C1EBC10100EB8100B0F8E40180B2E6
:1021E00070472DE9F04F01F07F05C5EBC5040E06E1
:1021F00000EB840401D5283401E004F5E674C90934
:1022000025706170E260E37090F8701301290DD0C1
:10221000012180F87013E27848F68F114AB1012A43
:1022200021D0022A0DD0032A26D112E00220BDE8D7
:10223000F08F2278036833F822500D4045F4007186
:1022400018E02278036833F822500D4023F822501A
:1022500012E02378026832F823500D4045F4C06143
:1022600022F8231008E02278036833F822500D404A
:1022700045F4806123F822102378066836F823504D
:1022800048F68F710D4048F2800215431D4326F831
:102290002350A77A4FF4806348F6BF794BF68F7AC4
:1022A00048F2C0054CF28006EFB3D0F800802778E2
:1022B000C34638F827C048F280180CEA010C4CEAF3
:1022C000080C2BF827C0E78827F0010C0768BB46ED
:1022D000B7F8507094F800809E4607EBC80703EBF0
:1022E00047032BF803C0238923F0010703689B46AB
:1022F000B3F850C094F80080042303EBC8039C4457
:102300000EEB4C0C2BF80C7063780768002B2378CD
:1023100037F823C04FEA4C4C7DD0BCF1000F09DAEE
:1023200037F823C000E033E00CEA010C4CEA060C5D
:1023300027F823C02378076837F823C05FEA4C6C7E
:1023400007D537F823C00CEA010C4CEA050C27F836
:1023500023C02578076837F825300B40334327F82A
:1023600025302378056835F8231001EA0901114367
:1023700025F823102378056835F8231001EA0A01AF
:10238000114325F82310002180F8701308464EE70A
:1023900067780FB3A68826F001070668B6F850C024
:1023A00094F800800CEBC80C03EB4C03F752267832
:1023B000036833F826707F0605D533F826700F4082
:1023C0002F4323F826702478036833F8241001EA99
:1023D000090181F020017DE0A58825F0010705684D
:1023E000A946B5F850C094F80080042505EBC8054F
:1023F000654403EB450C29F80C700568B5F850707E
:1024000094F800C04FF0060808EBCC0C674403EBCF
:1024100047035F1900E02DE0E3684FF6FF7C3E2B99
:102420000AD9C3F34F15DB0601D16D1EADB20CEA1C
:10243000852343F4004307E0C3F34F05DB0701D0D6
:102440006D1CADB20CEA85233B802378056835F816
:1024500023707F0405D535F823700F40374325F8E6
:1024600023702478036833F8241001EA0A0181F408
:1024700040512FE0BCF1000F07DA37F823C00CEA17
:10248000010C4CEA060C27F823C02378066836F8BE
:1024900023707F0605D536F823700F402F4326F8AA
:1024A00023702378066836F823700F402F4326F8F0
:1024B00023702378056835F8231001EA0A0181F4B6
:1024C0004051114325F823102478036833F8241071
:1024D00001EA0901114323F8241054E7F0B501F093
:1024E0007F05C5EBC50400EB84041E46C4E97723D1
:1024F0000022C4F8E42184F8CD2184F8CC51D4F82A
:10250000D85104F5E674AB4201D92B46F21A626148
:102510000668062201F07F0102EBC101B6F8507097
:102520004FF480654FF6FF72394405EB41018D1978
:102530003E2B1FD9C3F34F11DB0618D002EA8121CD
:1025400041F4004102E000BF02EA812129802278A3
:10255000016831F822004BF68F73184080F4405028
:1025600048F28003184321F822000020F0BD491EE4
:1025700089B2E3E7C3F34F01DB07E5D0491C89B219
:10258000E2E730B590F87023012A0CD0012480F8DE
:1025900070430B0601F07F0207D5C2EBC20300EBCC
:1025A0008303283307E0022030BDC1EBC10300EBF9
:1025B000830303F5E673C9099C701A70597048F2D9
:1025C000800352B10468002934F8221011D048F673
:1025D000BF75294081F0100110E0026811884BF6A8
:1025E000BF74214081F4805181F0100119431180A2
:1025F00007E04BF68F75294081F48051194324F888
:102600002210002180F87013084630BD70B50646D0
:1026100001F07F00C0EBC00106EB81040121C4E999
:102620000E230022226484F8291004F8280F1D4686
:10263000E068834203D90546181A606100E06261D0
:10264000A07A38B12178306830F82110490614D5C5
:10265000228913E0ABB2A2882169306802F0ECFE57
:102660003068B0F850102278022303EBC202114404
:102670005A0202EB4101455220E0E288ABB22169E7
:1026800002F0DAFE617848F68F7011B101290BD0A3
:1026900014E02178336833F82120024048F2C0006A
:1026A000024323F8212009E02178326832F82130F2
:1026B00003404CF28000034322F821302278316835
:1026C00031F8220048F6BF73184080F0300048F21D
:1026D0008003184321F82200002070BD10B5044685
:1026E0000068B0F84400000402D5204602F0D9FC8E
:1026F0002068B0F8441049050AD54FF6FF31A0F81C
:102700004410204600F0E4F80021204600F0F5F8DF
:102710002068B0F84410490403D54BF6FF71A0F8C7
:1027200044102068B0F84410890403D54DF6FF71B9
:10273000A0F844102068B0F84410C90412D530F84D
:10274000401F21F004010180206830F8401F21F073
:1027500008010180204600F0C8F821684EF6FF709D
:10276000A1F844002068B0F84410090518D530F8E5
:10277000401F41F00801018021684FF2FF70A1F86D
:102780004400206830F8401F41F0040101802068B7
:10279000B0F84400C043C00402D5204600F0D0F891
:1027A0002068B0F84410890506D54FF6FF51A0F80F
:1027B0004410204600F09DF82068B0F84410C90588
:1027C00003D54FF6FF61A0F8441010BD70B50400AA
:1027D0004FF0000604D094F87103002510B106E014
:1027E000012070BD84F87053204600F043F80320A8
:1027F00084F8710301220CE0C6EBC60004EB8000F4
:1028000080F8292000F8286F761CC570C560056126
:1028100045616068B042EFD8002010E0C0EBC00115
:1028200004EB810181F8CD5181F8CC0181F8CF51C1
:10283000C1F8D851C1F8DC51401CC1F8E0516168C1
:102840008142EBD82068A0F840202068A0F84050D2
:102850002068A0F844502068A0F8505021684FF438
:102860003F40A1F8400084F8245084F871230020F0
:1028700070BD000000B50068134987B0884220D1C0
:102880004FF4C050009002200190002002900320DD
:1028900003900E20049069464FF09040FEF732FFFF
:1028A0000A48C16941F40001C161C069002200F415
:1028B0000000059005211420FFF70CFB1420FFF702
:1028C000FBFA07B000BD0000005C004000100240B1
:1028D00010B504460121D0F8A40303F0E5FFD4F8B5
:1028E000A403BDE8104003F0AEBFD0F8A40303F08A
:1028F000C9BFD0F8A40303F0CBBF90F87023012A1E
:102900000AD0012280F8702341B180F82410002100
:1029100080F87013084670470220704702688021D3
:10292000A2F84C10F3E7D0F8A42300F55D7110462F
:1029300003F0CDBF10B50121FFF71CFB002010BD37
:1029400010B50446D0F8A40304F00EF8A0690028DE
:1029500004D00348016841F00601016010BD000089
:1029600010ED00E02DE9F84F04460068804DC003EB
:102970006FD5E8690026C00008D4E86940F08050AF
:10298000E861E869012600F080500090794801680C
:10299000C90512D40168804641F480710160FEF7D8
:1029A0007FFF074605E000BFFEF77AFFC01B6428E3
:1029B00035D8D8F80000C005F6D5286A10F4407064
:1029C00053D0A18801F4407181424ED0286A4FF45F
:1029D000803191FAA1F2B2FA82F29700664A4FF082
:1029E0000108174420F44070C7F8008491FAA1F15F
:1029F000B1FA81F102EB81010023C1F800342862B1
:102A0000C00732D0FEF74CFF074641F2883A4FF03C
:102A1000020907E0FEF744FFC11B514502D903201C
:102A2000BDE8F88F99FAA9F1B1FA81F141F04001BE
:102A30004846B8EB511F01D129680CE090FAA0F18B
:102A4000B1FA81F141F04001B0EB511F02D1296A86
:102A500001E015E0696A99FAA9F0B0FA80F000F097
:102A60001F0008FA00F21142D4D0286A616820F4ED
:102A70004070084328621EB1E86920F08050E86188
:102A80002078C00705D0286BA16820F00300084318
:102A900028632078800705D5286BE16820F4403052
:102AA000084328632078400705D5286B216920F466
:102AB0004020084328632078800605D5286BE1690B
:102AC00020F01000084328632068800305D568685B
:102AD000A16B20F48000084368602078400605D58B
:102AE000286B216A20F02000084328632078000723
:102AF00005D5286B616920F44010084328632078CD
:102B0000C00605D5286BA16920F44000084328635E
:102B10002088800505D56868E16A20F40000084334
:102B200068602078000605D5E86A616A20F4F870CC
:102B30000843E8622088C00505D5E86AA16A20F448
:102B400078500843E8622088C00405D5286B216BC3
:102B500020F48070084328632088800405D5286B02
:102B6000616B20F4007008432863002058E70000E0
:102B70000010024000700040000042422DE9F04782
:102B80000F46050069D04A4E306800F00700B84291
:102B900009D2306820F0070038433060306800F018
:102BA0000700B84259D12878424C800705D56068A3
:102BB000A96820F0F000084360602878C0073DD085
:102BC0006968012001290DD0022923D05FF002039A
:102BD00093FAA3F2B2FA82F242F02002520904D030
:102BE000226803E04FF40033F2E7626A93FAA3F33A
:102BF000B3FA83F303F01F03984002422DD06068BC
:102C000020F0030008436060FEF74AFE804641F270
:102C100088390CE04FF00073DAE700BFFEF740FEA2
:102C2000A0EB0801494502D90320BDE8F0876068A0
:102C3000696800F00C00B0EB810FEFD1306800F054
:102C40000700B8420BD9306820F0070038433060E5
:102C5000306800F00700B84201D00120E5E728788D
:102C6000400705D56068E96820F4E06008436060CB
:102C70002878000706D56068296920F4605040EA8A
:102C8000C100606000F072F86168F02292FAA2F26E
:102C900001F0F001B2FA82F2D140074A515CC8401B
:102CA000064908600020FFF78DF80020BDE700000E
:102CB0000020024000100240D08C00089C00002040
:102CC0000F2202600C4A536803F003034360536809
:102CD00003F0F0038360536803F4E063C360526859
:102CE0004FF4E06303EAD20202610448006800F096
:102CF00007000860704700000010024000200240FA
:102D000001480068704700009C00002008480949FD
:102D1000006849684FF4E06292FAA2F201F4E061BF
:102D2000B2FA82F2D140044A515CC84070470000B8
:102D30009C00002000100240E08C0008084809496F
:102D4000006849684FF4605292FAA2F201F46051AF
:102D5000B2FA82F2D140044A515CC8407047000088
:102D60009C00002000100240E08C0008144B10B5BD
:102D70005A68144802F00C0104291DD008291BD1FF
:102D80004FF4701494FAA4F402F47011B4FA84F4B9
:102D9000E1400D4CDB6A615C0F2494FAA4F403F06B
:102DA0000F03B4FA84F4E340074C1034D203E35C1D
:102DB00003D5B0FBF3F0484310BD0448484310BDB1
:102DC0000010024000127A00B08C000800093D009B
:102DD0002DE9F84F040071D02078FB4DC0074FF06B
:102DE000010625D068687704C0F38100012807D068
:102DF0006868C0F3810002281BD16868C00318D539
:102E000097FAA7F0B0FA80F040F02000400901D016
:102E1000286800E0686A97FAA7F1B1FA81F101F039
:102E20001F0106FA01F1084265D060680028D2D07F
:102E300061E06068B0F5803F0BD010B1B0F5A02F15
:102E400017D0286820F480302860286820F480207B
:102E500002E0286840F480302860E86AA16820F029
:102E60000F000843E862606820B3FEF719FD804652
:102E70000AE0286840F480202860EAE7FEF710FDA9
:102E8000A0EB0800642872D897FAA7F0B0FA80F097
:102E900040F02000400901D0286800E0686A97FAF5
:102EA000A7F1B1FA81F101F01F0106FA01F1084220
:102EB000E4D020E0FEF7F4FC804607E0C7E000BF66
:102EC000FEF7EEFCA0EB08006428DCD897FAA7F028
:102ED000B0FA80F040F02000400901D0286800E0FE
:102EE000686A97FAA7F1B1FA81F101F01F0106FAB9
:102EF00001F10842E4D12078DFF8D08280074FF05A
:102F0000000A4FF0020759D568684FF0F80B10F02F
:102F10000C0F07D06868C0F3810002281BD16868D5
:102F2000C00318D497FAA7F0B0FA80F040F0200060
:102F3000400901D0286800E0686A97FAA7F1B1FA61
:102F400081F101F01F0106FA01F108422BD020693E
:102F500001287CD127E0206988B396FAA6F0B0FA60
:102F600080F048F82060FEF79BFC814606E055E1C2
:102F7000FEF796FCA0EB0900022884D897FAA7F088
:102F8000B0FA80F040F02000400901D0286800E04D
:102F9000686A97FAA7F1B1FA81F101F01F0106FA08
:102FA00001F10842E4D028689BFAABF26169B2FAF9
:102FB00082F220F0F80091400843286025E0FFE706
:102FC00096FAA6F1B1FA81F148F821A0FEF768FC63
:102FD000814605E0FEF764FCA0EB09000228CCD88E
:102FE00097FAA7F0B0FA80F040F02000400901D035
:102FF000286800E0686A97FAA7F1B1FA81F101F058
:103000001F0106FA01F10842E4D1207800076AD5D1
:10301000A069A0B396FAA6F0B0FA80F008EB8000A1
:10302000C0F88064FEF73CFC814605E0FEF738FC02
:10303000A0EB09000228A0D897FAA7F0B0FA80F018
:1030400040F06000B6EB501F02D128680CE077E139
:1030500097FAA7F0B0FA80F040F06000B7EB501F8D
:1030600001D1286A00E0686A97FAA7F1B1FA81F104
:1030700001F01F0106FA01F21042D7D033E0FFE75A
:1030800096FAA6F0B0FA80F008EB8000C0F880A4B1
:10309000FEF706FC814605E0FEF702FCA0EB090006
:1030A00002289CD897FAA7F0B0FA80F040F06000B0
:1030B000B6EB501F01D128680BE097FAA7F0B0FAE1
:1030C00080F040F06000B7EB501F01D1286A00E0AB
:1030D000686A97FAA7F1B1FA81F101F01F0106FAC7
:1030E00001F21042D8D12078400774D5E8694FF03A
:1030F0000009C00009D4E86940F08050E861E8693F
:103100004FF0010900F08050009031480168C90576
:1031100012D4016841F480710160FEF7C1FB83465F
:1031200006E000BFFEF7BCFBA0EB0B00642875D8DF
:1031300027480068C005F5D5E06801280AD008B125
:10314000052811D0286A20F001002862286A20F0A2
:10315000040002E0286A40F001002862E068C8B379
:10316000FEF79EFB83460DE0286A40F004002862CB
:10317000F0E700BFFEF794FBA0EB0B0141F28830B3
:1031800081424BD897FAA7F0B0FA80F040F04000A7
:10319000B6EB501F01D128680BE097FAA7F0B0FA00
:1031A00080F040F04000B7EB501F01D1286A00E0EA
:1031B000686A97FAA7F1B1FA81F101F01F0106FAE6
:1031C00001F21042D6D035E0001002400000424229
:1031D0000070004000E034E0FEF762FB834607E049
:1031E000FEF75EFBA0EB0B0141F28830814215D85F
:1031F00097FAA7F0B0FA80F040F04000B6EB501F0D
:1032000001D128680CE097FAA7F0B0FA80F040F0FE
:103210004000B7EB501F02D1286A01E083E0686AE2
:1032200097FAA7F1B1FA81F101F01F0106FA01F254
:103230001042D5D1B9F1000F03D0E86920F08050D9
:10324000E861E06980B36968C1F38101022977D040
:103250004FF080714F00022809D091FAA1F0B0FA26
:1032600080F048F820A0FEF71BFB04465EE05046C5
:103270008A4691FAA1F1B1FA81F1C14648F82100DC
:10328000FEF70EFB804605E0FEF70AFBA0EB080008
:10329000022848D897FAA7F0B0FA80F040F0200052
:1032A000400902D0286801E056E0686A97FAA7F161
:1032B000B1FA81F101F01F0106FA01F10842E3D1F0
:1032C000D4E908100843696821F474110843686060
:1032D0009AFAAAF0B0FA80F049F82060FEF7E0FA16
:1032E000044604E0FEF7DCFA001B02281BD897FA1C
:1032F000A7F0B0FA80F040F02000400901D0286823
:1033000000E0686A97FAA7F1B1FA81F101F01F01B4
:1033100006FA01F10842E5D01EE000BFFEF7C0FA50
:10332000001B022802D90320BDE8F88F97FAA7F006
:10333000B0FA80F040F02000400902D0286801E097
:103340000CE0686A97FAA7F1B1FA81F101F01F0168
:1033500006FA01F10842E1D10020E5E70120E3E7A8
:1033600010B5040011D0022084F85D0020680168C7
:1033700021F040010160204600F068F8002020663E
:1033800084F85D0084F85C0010BD012010BD90F849
:103390005D0070472DE9F041040005D00025A562CD
:1033A00094F85D0018B107E00120BDE8F08184F8D1
:1033B0005C50204600F05EF8022384F85D302068FF
:1033C000016821F040010160E0684FF4E066B0421E
:1033D00001D9002101E04FF48051B0F5706F02D0A7
:1033E000B04200D0A562276B012227B9B04201D9B3
:1033F000236300E02263D4E901031843D4E90436CF
:1034000033431843238B03F400731843E3691843D1
:10341000236A1843A36A184323681860636B606AC1
:10342000A66918430427E36807EA1646334318439E
:103430000843216848602068C16921F40061C161C6
:10344000256684F85D200020AFE70000006807498A
:10345000884209D10648816921F480518161E021C7
:103460004FF09040FEF7C0B87047000000300140B8
:103470000010024000B500680E4987B0884217D19D
:103480000D48816941F4805181618069694600F489
:1034900080500590E02000900220019000200290D2
:1034A00003200390052004904FF09040FEF72AF986
:1034B00007B000BD00300140001002402DE9F05F70
:1034C000044690F85C0000260A9F994692460D46F5
:1034D0004FF0010801280ED0012084F85C00FEF7AF
:1034E000DFF9834694F85D00616801280CD0B1F5DE
:1034F000827F07D102E00220BDE8F09FA16809B9F0
:10350000042801D00226F0E0002D79D0BAF1000F96
:10351000FBD0B9F1000FF8D094F85D00042802D078
:10352000052084F85D0000202066C4F840A0A4F8BF
:103530004690A4F84490A563A4F83E90A4F83C906B
:10354000E0642065E0684FF4E061884203D8B4F895
:103550004600012804D92068426822F4805203E022
:103560002068426842F48052426020680268520635
:1035700003D4026842F040020260E068884260685A
:103580003FD910B1E08F012832D1216835F8020B04
:10359000C860E08F401EE0872AE000BFB8F1000F4E
:1035A0000DD0E08F58B120688168890707D535F8BC
:1035B000021BC160E08F401EE0874FF00008B4F8A6
:1035C000460068B120688168C90709D0C0682AF838
:1035D000020BB4F84600401EA4F846004FF0010864
:1035E000781C05D0FEF75CF9A0EB0B00B84268D25E
:1035F000E08F0028D2D1B4F846000028CED169E08F
:1036000072E010B1E08F01285DD1E08F012806D96A
:10361000216835F8020BC860E08F801E05E0206845
:1036200015F8011B0173E08F401EE0874BE000BFDF
:10363000B8F1000F16D0E08FA0B12068816889072B
:1036400010D5E18F012905D935F8021BC160E08F43
:10365000801E04E015F8011B0173E08F401EE08717
:103660004FF00008B4F8460018B320688168C90715
:103670001FD0B4F84610012911D9C0682AF8020BEE
:10368000B4F84600801EA4F84600B4F846000128AD
:103690000DD82068416841F48051416007E0017B0A
:1036A0000AF8011BB4F84600401EA4F846004FF08B
:1036B0000108781C07D0FEF7F3F8A0EB0B00B84226
:1036C00001D3032611E0E08F0028B1D1B4F8460001
:1036D0000028ADD15A463946204601F0C0FE08B157
:1036E00020202066206E00B10126012084F85D00B4
:1036F000002084F85C003046FEE64FF0E02104280C
:10370000086903D020F004000861704740F004000D
:10371000FAE710B5401EB0F1807F01D3012010BD43
:103720004FF0E02460610F21601703F01DFB0020C3
:10373000A06107202061002010BD704770477047CE
:1037400030B590F83C20012A3DD0012280F83C2081
:10375000CA688B6822F440721A434B6822F4806274
:103760001A430B6822F400621A430B6922F4805258
:103770001A434B6922F400521A438B6A22F48042A6
:103780001A4322F400421A430B8B22F4702242EABD
:1037900003420E4D03680024AB4202D00C4DAB42F5
:1037A0000CD18D8C22F4700242EA0552CD6922F0D0
:1037B00080722A43096A22F000720A435A6480F830
:1037C0003C40002030BD022030BD0000002C0140F4
:1037D0000034014030B590F83C20012A1FD001226E
:1037E00080F83C200268536894680E4DAA4202D0CB
:1037F0000D4DAA4203D123F470054B682B4323F0EF
:1038000070050B6889682B4324F0800421435360C2
:1038100002689160002180F83C10084630BD02200B
:1038200030BD0000002C01400034014010B5040000
:1038300003D094F83D0010B107E0012010BD002036
:1038400084F83C00204600F00DF8022084F83D008A
:10385000211D206801F0E6FF012084F83D000020D2
:1038600010BD000008B50C4A01680C48914207D110
:10387000816941F400318161806900F4003009E020
:10388000074A914207D1816941F4802181618069B1
:1038900000F48020009008BD004401400010024068
:1038A000004801400168CA6842F00102CA6000682D
:1038B000016841F00101016000207047704770B558
:1038C0000446006801694FF00005C943890715D413
:1038D000C168C943890711D4E91E0161012020771D
:1038E000206880698007204602D0FFF7E7FF04E0E8
:1038F00000F0FCF8204600F0D7F925772068016930
:10390000C943490717D4C168C943490713D46FF0A5
:1039100004010161022020772068806910F4407F53
:10392000204602D0FFF7CAFF04E000F0DFF820468F
:1039300000F0BAF9257720680169C943090716D450
:10394000C168C943090712D46FF00801016104205E
:1039500020772068C0698007204602D0FFF7AEFFBD
:1039600004E000F0C3F8204600F09EF925772068B7
:103970000169C943C90617D4C168C943C90613D42C
:103980006FF010010161082020772068C06910F4F1
:10399000407F204602D0FFF791FF04E000F0A6F838
:1039A000204600F081F9257720680169C943C907DD
:1039B00008D1C168C943C90704D1891E01612046E5
:1039C00000F0A0F920680169C943090609D4C1685B
:1039D000C943090605D46FF0800101612046FFF755
:1039E000ADFE20680169C943C90509D4C168C9434E
:1039F000090605D46FF4807101612046FFF79DFE32
:103A000020680169C943490609D4C168C943490608
:103A100005D46FF040010161204600F07AF920687A
:103A20000169C94389060BD4C168C943890607D413
:103A30006FF0200101612046BDE87040FFF77FBEB6
:103A400070BD000030B5214D036800210124022221
:103A50001F4885B0AB4205D10094CDE90121CDE9E5
:103A6000031230E01B4DAB420CD1D8130090CDE9CE
:103A70000121CDE903121848694600BFFDF742FE57
:103A800005B030BD154DAB4209D158150090CDE9B8
:103A900001210320CDE9031069461148EEE7114DDD
:103AA000AB4206D110230093CDE90121CDE90314E7
:103AB00009E00D4CA342E3D120230093CDE901217D
:103AC00003910A2104916946D8E7000000040040F0
:103AD0000004004800080040000C0048004001407D
:103AE000001400480044014000480140704770B590
:103AF000044690F83C000D4601280ED0012684F8BB
:103B00003C60022084F83D000C2A45D007DC5AB105
:103B1000042A1BD0082A78D12CE0022070BD102A7C
:103B20004ED0142A71D15DE0206801F0DFFE2068DC
:103B3000816941F0080181612068816921F00401F7
:103B40008161206881692A69114311E0206801F0D0
:103B50001BFF2068816941F40061816120688169EF
:103B600021F480618161206881692A6941EA02212A
:103B700081614AE0206801F04FFF2068C16941F08F
:103B80000801C1612068C16921F00401C161206898
:103B9000C1692A69114311E0206801F085FF20689E
:103BA000C16941F40061C1612068C16921F480618B
:103BB000C1612068C1692A6941EA0221C16124E02A
:103BC000206801F0ABFF2068416D41F008014165BC
:103BD0002068416D21F0040141652068416D2A692A
:103BE000114311E0206801F0D1FF2068416D41F4DC
:103BF000006141652068416D21F480614165206864
:103C0000416D2A6941EA0221416584F83D60002046
:103C100084F83C0070BD10B5040003D094F83D005A
:103C200010B107E0012010BD002084F83C002046C0
:103C300000F00CF8022084F83D00211D206801F0FE
:103C4000F1FD012084F83D00002010BD08B5124AA6
:103C500001681248914207D1C16941F00201C16176
:103C6000C06900F0020009E00D4A914208D1C16923
:103C700041F00401C161C06900F00400009008BD7A
:103C8000084A9142FBD1816941F4803181618069A8
:103C900000F48030F2E70000000400400010024011
:103CA00000080040004001407047000010B5044685
:103CB0000068012201F00EFE0D48216881420BD000
:103CC0000C48814208D00C48814205D00B48814203
:103CD00002D00B48814203D1486C40F40040486454
:103CE0002068016841F001010160002010BD000062
:103CF000002C0140003401400040014000440140DC
:103D0000004801400068B0F1804F01D1FEF740B893
:103D1000704770477047000010B500BF1421054878
:103D2000FCF7D5FABDE8104014220249024800F021
:103D300027B90000C0020020D804002070B5036835
:103D40000446D869196810F00F0508D1820606D517
:103D50008A0604D52046BDE8704002F006B89A688D
:103D6000002D66D002F0010501F490762E4360D05C
:103D7000C60707D0CE0505D501261E62E36E43F0C7
:103D80000103E366830708D5D30706D0266802231C
:103D90003362E36E43F00403E366430708D5D207BA
:103DA00006D0236804221A62E26E42F00202E26642
:103DB00002070AD501F020022A4306D02368082210
:103DC0001A62E26E42F00802E266E26E002A29D030
:103DD000800604D5880602D5204601F0C6FFE06EB5
:103DE000000703D42068806840061CD5204601F0F7
:103DF000A1FF20688168490611D5816821F0400142
:103E00008160606E58B11C494163606EFDF7B4FB80
:103E1000002807D0606E416BBDE87040084720461F
:103E2000FFF77AFF70BD2046FFF776FF0020E066BF
:103E300070BDC5020ED552020CD54FF48010186229
:103E4000202084F8690084F86A002046BDE87040AC
:103E5000FFF760BF020606D50A0604D52046BDE876
:103E6000704002F0A7B84006E2D54806E0D52046EB
:103E7000BDE8704001F06CBF215D000810B5040082
:103E800003D094F8690010B107E0012010BD0020B4
:103E900084F86800204600F027F8242084F86900A0
:103EA0002068016821F001010160204601F098FFBF
:103EB0000128EBD0606A10B1204601F09FFE206817
:103EC000416821F4904141602068816821F02A0115
:103ED00081602068016841F0010101602046BDE871
:103EE000104001F0EFBE000070B5214E05680021C2
:103EF000204802220323072486B0B54218D18569E1
:103F000045F480458561806902AD00F480400590EC
:103F100085E81A003020CDE9000269461648FDF711
:103F2000F1FB002205212520FDF7D4FF25201BE011
:103F3000124EB5421AD1C56945F40035C561C06954
:103F400002AD00F40030059085E81A000C20CDE9A0
:103F5000000269464FF09040FDF7D4FB0022052196
:103F60002620FDF7B7FF2620FDF7A6FF06B070BD9F
:103F700000380140001002400008004800440040A2
:103F800090F86A30202B36D199B192B190F8683010
:103F9000012B30D0012380F868304165A0F858200B
:103FA000A0F85A208168FF22B1F5805F03D039B1B3
:103FB0000BE0012070470169D1B940F2FF1102E026
:103FC0000169A9B17F21A0F85C100021C1662222FD
:103FD00080F86A2080F8681001688A6842F001025F
:103FE0008A600068016841F49071016000207047A8
:103FF000A0F85C20E9E702207047000010B50B49EB
:1040000004461422A1F11400FCF748F914220749D0
:104010000748FFF7B5FF074900200870142103483F
:10402000FCF755F9202084F86A0010BDC00200207A
:10403000D80400200000002090F86930202B18D10F
:10404000A9B1A2B190F86830012B12D040F84C1FF2
:104050008280C2800021016221224277017750F8DC
:104060004C0C016841F08001016000207047012084
:104070007047022070477047054D4FF400542146A9
:104080002846FDF703FC03A002F032FEF7E700002C
:1040900000100048486172646661756C7448616E16
:1040A000646C65722121212121210D0A000000008C
:1040B00001688A69D243920701D400228A620068AB
:1040C0008169C943C90703D0816941F00101816158
:1040D000704700002DE9F0410446006890460E4606
:1040E0008069C043C0062ED400252027206880693F
:1040F000C043800611D5701CF8D02EB1FDF7D0FB5F
:10410000A0EB0800B042F1D984F8417084F8425025
:1041100084F840500320BDE8F08121681020C86178
:104120002068C7612046FFF7C3FF54F8440B41687D
:10413000064A11404160042044F820096777A577BA
:1041400025770120E7E70020E5E7000000E800FE12
:104150002DE9F84304461646DDE9089717489846C6
:10416000DAB200900023204600F062F83A46494651
:10417000204600F0C3F818B1606C04281CD018E089
:10418000F5B2B8F1010F09D02168300A88623A46C9
:104190004946204600F0B2F80028EDD1206885623B
:1041A0004B46002240212046009700F057F8002897
:1041B00000D00320BDE8F8830120FBE70020008049
:1041C0002DE9F8430446164618489846DDE9089755
:1041D000DAB2C3020090204600F02AF83A46494677
:1041E000204600F08BF818B1606C04281CD018E051
:1041F000F5B2B8F1010F09D02168300A88623A4659
:104200004946204600F07AF80028EDD12068856202
:104210004B46002280212046009700F01FF800281E
:1042200000D00320BDE8F8830120FBE700200080D8
:10423000F0B50568059C68684FF48066064FC1F3C9
:10424000090106EA545641EA02413E431943B0438C
:10425000214308436860F0BDFF63FF032DE9F0418F
:104260001D4617460E460446DDF8188013E0681C0C
:1042700011D02DB1FDF714FBA0EB0800A8420AD91C
:10428000202084F84100002084F8420084F8400097
:104290000320BDE8F0812068806936EA000004D080
:1042A0000020B842E3D00020F3E70120F9E770B521
:1042B00016460D4604461AE0324629462046FFF7C8
:1042C00009FF08B1012070BD25B1FDF7E9FA801B97
:1042D000A8420CD954F8440F40F0200044F80409D7
:1042E000202060700020A0702070032070BD206826
:1042F0008069C0438006DFD4002070BD70B51646CB
:104300000D4604461CE0324629462046FFF7E2FEF1
:1043100008B1012070BD681C12D025B1FDF7C0FAAC
:10432000801BA8420CD954F8440F40F0200044F8F8
:104330000409202060700020A0702070032070BD50
:1043400020688069C0438007DDD4002070BD000074
:1043500010B50348FDF7FEFABDE8104000F002B8C2
:104360001818002010B586B01B48FDF70CFB00287C
:104370002FD1194819491A4C01603221816001215D
:10438000C160002101614161C1610162606940F465
:10439000802060616069694600F480200590C0203B
:1043A00000900220019002900320039004200490CA
:1043B0000C48FDF7A7F9E06940F40010E061E069FE
:1043C00000F40010059006B00348BDE81040FDF76A
:1043D000DDBA06B010BD00001818002000540040DF
:1043E000001002400004004838B504460122222192
:1043F0006846FDF745F814B1012C05D00AE09DF898
:10440000000000F07F0003E09DF8000000F0F700DE
:104410008DF80000012222216846FDF759F838BDC9
:1044200038B50446012222216846FDF729F814B167
:10443000012C07D00EE09DF8000000F07F0040F056
:10444000800005E09DF8000000F0F70040F0080053
:104450008DF80000012222216846FDF739F838BDA9
:1044600038B50446012224216846FDF709F89DF875
:104470000000012200F0EF0020438DF8000024210D
:104480006846FDF725F838BD38B5044601222121DC
:104490006846FCF7F5FF9DF80000012200F0C0001F
:1044A00020438DF8000021216846FDF711F838BD42
:1044B0001CB5044600208DF800008DF80400012290
:1044C00030216846FCF7DCFF0122222101A8FCF71D
:1044D000D7FF9DF80000012200F080008DF8000059
:1044E0009DF80400302100F0DF0004438DF8044003
:1044F0006846FCF7EDFF0122222101A8FCF7E8FF46
:104500001CBD38B5044600208DF80000FCF782FF82
:104510008DF80040012220216846FCF7D9FF200ACF
:104520008DF80000012223216846FCF7D1FF38BD39
:1045300008B5FCF76FFF01220F216846FCF7A0FFCA
:104540009DF8000008BD000070B505462DED028BFA
:1045500086B0002000900190029003908DF810002A
:1045600004469FED288A0122232104A8FCF788FF36
:10457000062228216846FCF783FF9DF81010684644
:104580004B0602AA0DD400BF00EB440610F814300D
:10459000767803EB062322F81430641C032CF3DB3B
:1045A0000BE000EB440310F814605B7803EB062388
:1045B00022F81430641C032CF3DB11F0300004D01B
:1045C000102805D0202808D105E09FED0F8A04E0CF
:1045D0009FED0E8A01E09FED0E8A002132F9110055
:1045E00000EE100A05EB8100491CB8EEC00A032951
:1045F00020EE080A80ED000AF0DB06B0BDEC028B6D
:1046000070BD00000000000000000C4100008C4163
:1046100000008C4208B5012224216846FCF730FFD7
:104620009DF80000012240F080008DF80000242158
:104630006846FCF74DFF08BD2DE9F04F8346007832
:1046400087B00C4654280FD118227DA16846FBF78D
:1046500025FE162269465846FBF720FE7EA002F092
:1046600047FB0A2003F062FC5846FBF73BFE00279D
:104670004FF0010803283CD89BF800003F2807D0E2
:104680000D2824D0794C642825D02D2829D0C3E0CA
:104690006068FBF7EDFF82468846A068FBF7E8FFFD
:1046A00007468946E068FBF7E3FF05460E462068AB
:1046B000FBF7DEFF41EC100B206953EC102BCDE92A
:1046C00005808DE8E0066A4802F012FB0DE069A063
:1046D00002F00EFB09E069A002F00AFB84F80080FA
:1046E00003E06AA002F004FB27700A2003F01EFC1E
:1046F00092E0009701975E460025E946DFF8A0A109
:10470000029782E0705D3B2876D12A4631466846A2
:10471000FBF7C4FD2E449DF80000761C50280DD0F8
:1047200049281CD044282DD04F283CD053284BD0AA
:104730004D284FD05BA002F0DBFA59E009F10100EF
:1047400002F092FC51EC100BFBF7A5FF6060FBF749
:104750008FFF41EC100B55A053EC102B0FE009F12B
:10476000010002F081FC51EC100BFBF794FFA060FC
:10477000FBF77EFF41EC100B50A053EC102B02F026
:10478000B7FA35E009F1010002F06EFC51EC100BB4
:10479000FBF781FFE060FBF76BFF41EC100B4BA0D8
:1047A00053EC102BEBE709F1010002F05DFC51EC3A
:1047B000100BFBF770FF2060FBF75AFF41EC100B6A
:1047C00046A053EC102BDAE709F10100FBF791FD4D
:1047D00020610DE009F10100FBF78BFDC0B201285B
:1047E00027D048B32FA002F083FA0A2003F09EFBE3
:1047F0000A2003F09BFB00256846FBF773FD01468A
:104800006846FBF764FD6D1CEDB25846FBF76AFD88
:10481000401EA8423FF676AF5846FBF763FD0146BF
:104820005846FBF754FD07B00A20BDE8F04F03F0EF
:104830007DBB8AF80080DBE78AF80070D8E70000CB
:104840004431393B50333830303B4934303B4F30C2
:104850003B5331393B0000007465737420736571FC
:1048600075656E63652021210A0D00002800002077
:10487000088E00080A0D434D443E20000A0D446591
:10488000627567204F4E2021212120000A0D4465CA
:10489000627567204F46462021212120000000003C
:1048A000240000204B4F21200D0A00004B502073A4
:1048B0006574204F4B2025660D0A00004B4920737C
:1048C0006574204F4B2025660D0A00004B44207371
:1048D0006574204F4B2025660D0A0000616E676CE1
:1048E000654F666673657420736574204F4B202591
:1048F000660D0A0010B5044638213220FCF756FD3B
:1049000040EA040238213220FCF76AFD0A223A21EB
:104910003220FCF765FD052422463B213220FCF7BE
:104920005FFD22463C213220FCF75AFD3222BDE8D1
:1049300010403D211046FCF753BD10B5044621211F
:104940003220FCF733FD20F0040222432121BDE890
:1049500010403220FCF744BD10B50446212132201E
:10496000FCF724FD00F0F70222432121BDE81040AE
:104970003220FCF735BD10B5044621213220FCF76A
:1049800015FD00F00C0222432121BDE81040322029
:10499000FCF726BD10B5044622213220FCF706FDA7
:1049A00040EA04022221BDE810403220FCF718BD85
:1049B00010B50446FCF7C2FCE2B220213220FCF71D
:1049C0000FFD00222321BDE810403220FCF708BD76
:1049D00010B5FCF7B3FC0F21BDE810403220FCF706
:1049E000E5BC00002DE9FF410646002401252321F6
:1049F0003220FCF7DBFC074624213220FCF7D6FCF2
:104A000028213220FCF7D2FC8DF800002921322029
:104A1000FCF7CCFC8DF801002A213220FCF7C6FC03
:104A20008DF802002B213220FCF7C0FC8DF803002A
:104A30002C213220FCF7BAFC8DF804002D21322005
:104A4000FCF7B4FC8DF805007A06694602A810D47C
:104A500001EB440292F9003092F901201204120A8B
:104A600003FA82F220F81420641CE4B2032CEFD382
:104A70000FE001EB440292F9013092F90020120498
:104A8000120A03FA82F220F81420641CE4B2032C08
:104A9000EFD317F0300106D0102906D0202906D018
:104AA000302907D105E0012504E0022502E00425B4
:104AB00000E00C255FF0000130F8112012FB05F238
:104AC00026F81120491CC9B20329F5D3BDE8FF819E
:104AD00010B524213220FCF769FC40F0800224212B
:104AE000BDE810403220FCF77BBC10B5FCF7FEFBA4
:104AF0008020FFF74FFF0420FFF71FFFBDE81040A5
:104B00001020FFF7F7BE000070B5404886B041693D
:104B100041F400114161416901F4001105914169BD
:104B200041F400214161416901F40021059141698D
:104B300041F480014161416901F4800105914169BD
:104B400041F400314161416901F40031059141694D
:104B500041F480214161416901F48021059141695D
:104B600041F4801141614069294E00F480104FF6F4
:104B700008750590002229463046FCF78BFE372049
:104B8000009024480024CDE9010469463046FCF732
:104B9000B9FD00950125CDE90154694630460394DD
:104BA000FCF7B0FD42F203000090CDE901546946E4
:104BB00019480394FCF7A6FD40F204400090CDE9AB
:104BC0000154694615480394FCF79CFD0E200090A3
:104BD000CDE90154694612480394FCF793FD032084
:104BE0000090CDE9015469464FF090400394FCF7E2
:104BF00089FD4FF428400090CDE9015469460948E9
:104C00000394FCF77FFD06B070BD00000010024069
:104C1000001000480000121000080048001400486E
:104C2000000C004800040048154810B51349016005
:104C30001449416000210122C0E902120161416171
:104C40008161C1610162FCF7A1FE10B14FF49A715C
:104C50000FE000210A48FCF729FE10B140F23B1199
:104C600007E000210648FCF74CFE002804D04FF472
:104C7000A171054802F014F810BD00000054004076
:104C8000E80200200E09002038500008124810B534
:104C9000104901604FF48271416000214FF440726D
:104CA000C0E902124FF400720161C0E90512082246
:104CB000C0E9072107234162C0E90A13C0E90C12C9
:104CC000FEF768FB002804D04FF4AE71034801F0F2
:104CD000E7FF10BD003001403403002038500008C9
:104CE00010B5244896B02249016018210024C0E97B
:104CF0000114C821C0E9031444618461FEF78BFFED
:104D000010B14FF4DF712BE0129412A919481494DA
:104D1000FEF760FD10B140F2C51121E06020CDE941
:104D20000B040D940E940F94109400220BA91148BB
:104D30001194FEF7DCFE10B140F2D11110E00094A6
:104D40004FF40050CDE9044001940294039406947A
:104D5000694608480A94FEF7F3FC20B14FF4EF715E
:104D600005A001F09DFF0348FEF76CFE16B010BDD4
:104D700000400140180400202E2E2F5372632F6D27
:104D800061696E2E6300000010B5244892B022497C
:104D900001604FF470710024C0E901144CF25031ED
:104DA000C0E9031444618461FEF740FD10B140F294
:104DB000F51128E01948FEF72EFF10B14FF4FD71F0
:104DC00021E06020CDE90B040D940E940F94109413
:104DD00000220BA911481194FEF789FE10B140F290
:104DE000062110E000944FF40050CDE904400194F6
:104DF000029403940694694608480A94FEF7A0FCBE
:104E000020B140F2132106A001F04AFF0348FEF74B
:104E100019FE12B010BD00000044014058040020EB
:104E20002E2E2F5372632F6D61696E2E630000006A
:104E300010B5234892B02149016018210024C0E92F
:104E40000114C821C0E9031444618461FEF7EEFC3B
:104E500010B140F22A2128E01948FEF7DCFE10B11B
:104E600040F22F2121E06020CDE90B040D940E9437
:104E70000F94109400220BA911481194FEF737FEED
:104E800010B140F23B2110E000944FF40050CDE906
:104E900004400194029403940694694608480A94D5
:104EA000FEF74EFC20B14FF4127106A001F0F8FE9F
:104EB0000348FEF7C7FD12B010BD000000480140D6
:104EC000980400202E2E2F5372632F6D61696E2E71
:104ED0006300000010B518488AB016490024C0E9E4
:104EE00000148460C46004618461FEF794FE10B114
:104EF0004FF4B87116E0079407A90F480994FEF71C
:104F000069FC10B140F277110CE06020CDE900049B
:104F100002940822694608480494FEF7E8FD20B18F
:104F20004FF4C071054801F0BBFE0348FEF78AFD4F
:104F30000AB010BD0004004098030020385000085B
:104F400010B51A488AB0184901604FF470710024F6
:104F5000C0E901144CF25031C0E903148461FEF73A
:104F60005AFE10B14FF4CB7116E0079407A90F4811
:104F70000994FEF72FFC10B140F29D110CE0602067
:104F8000CDE9000402940C22694608480494FEF717
:104F9000AEFD20B14FF4D371054801F081FE034806
:104FA000FEF750FD0AB010BD00080040D8030020F5
:104FB000385000080E4810B50C4901604FF41651E6
:104FC0004160002181600C22C160C0E9041281614E
:104FD000C16101624162FEF751FF002804D040F236
:104FE0005F21044801F05CFE10BD00000038014064
:104FF000D8040020385000080E4810B50C49016054
:105000004FF416514160002181600C22C160C0E95B
:1050100004128161C16101624162FEF72FFF002825
:1050200004D04FF41D7104A001F03AFE10BD000041
:1050300000440040480500202E2E2F5372632F6D30
:1050400061696E2E6300000010B50022084909480E
:1050500001F0B5FA0849074801F0B3FC07490548D3
:1050600001F0F6F8BDE81040024801F0F7BC00007E
:105070004C000020B80500206C02002080000020B9
:10508000064D4FF400544FF47A7621462846FCF73B
:10509000FDFB3046FCF796FAF7E7000000100048E9
:1050A00070472DE9FC5F4FF000080446ADF8008022
:1050B00048F60F7B4FF002094FF4806698E1BDF887
:1050C000041011F00F072FD030F82710ADF80010A2
:1050D000BDF8001009047CD530F8271040F68F7217
:1050E000114020F82710C7EBC70004EB800595F8A6
:1050F000D60105F5E67500286CD02878D4F800C0F4
:105100003CF82010BCF8502049047ED509EBC000C3
:10511000104406EB40003CF80000C0F309005FEAD1
:10512000000A73D0EA88D0E0BDF80410C9062AD47A
:10513000018801EA0B010180206804F12805B0F81C
:1051400050202B7809EBC301114406EB4101405A72
:10515000C0F309002064A16B0844A063002120462D
:10516000FCF709FF94F824000028A7D068690028FC
:10517000A4D194F82400216840F08000A1F84C00EC
:1051800084F8248034E1018804F5E675ADF8001058
:10519000BDF8001009051ED5B0F850202B78062167
:1051A00001EBC301114406EB4101405A04F55D7166
:1051B000C0F30903AB61AA88206800F027F92068D2
:1051C000018840F68F72114001802046FDF7ABFB4D
:1051D0000EE1A0E055E0BDF800100904D2D5018829
:1051E00040F68F72114001802068B0F850202B7873
:1051F000062101EBC301114406EB4101405A83052E
:105200009B0DAB610BD0AA8801E050E062E02969F8
:10521000206800F0FBF8A96928690844286100218A
:105220002046FCF7B1FE2068B0F85010891D06EB4F
:1052300041014218E9683E290CD9C1F34F10C90653
:1052400001D1401E80B24FF6FF7101EA802040F488
:10525000004009E0C1F34F00C90701D0401C80B2F3
:105260004FF6FF7101EA80201080216808884BF614
:105270008F72104080F4405048F280021043088042
:10528000B6E02068B0F850102B78062202EBC3027B
:10529000114406EB4101415AC1F309015FEA010AD9
:1052A00024D0AA885346296900F0B0F81EE00621F0
:1052B00001EBC000104406EB40003CF80000C0F3D6
:1052C00009005FEA000A05D02A8903466046296979
:1052D00000F09CF82878216831F8202048F68F7378
:1052E0001A4048F2C0031A4321F82020A86950440C
:1052F000A861286900EB0A022A616B6913B1E968A9
:10530000514504D929782046FCF73EFE03E0297870
:105310002046FDF7E3F8BDF80000000668D5C7EBAE
:10532000C70004EB8005206830F8271001EA0B0164
:1053300020F8271095F8320028350028206812D070
:10534000297830F82120B0F8503052061ED509EBEC
:10535000C101194406EB4101405A83059B0DAB6125
:1053600024D0EA881EE0B0F850102A7809EBC20277
:10537000114406EB4101405A83059B0DAB6121D0DE
:10538000AA882969206800F057F81BE0062202EB82
:10539000C101194406EB4101405A83059B0DAB61E5
:1053A00004D02A892969206800F046F82978206805
:1053B00030F8212048F68F731A404CF280031A43CC
:1053C00020F821202068B0F850202B7809EBC30189
:1053D000114406EB4101405AC0F30900A861296954
:1053E0000A182A6129786B69204663B1FDF70EF926
:1053F0002068B0F84410ADF8041009043FF55FAE22
:105400000020BDE8FC9FFCF7B6FDF1E710B500EB0E
:1054100042005C0800F5806009D000BF30F8042B22
:1054200001F8012B120A01F8012B641EF6D1DA07EC
:1054300001D00078087010BD10B55B1C00EB420075
:105440005B0800F5806009D011F8012B5B1E11F894
:10545000014B42EA042220F8042BF5D110BDF8B527
:1054600015460E460B460092044600224FF4C051EA
:1054700000F019F888B933460022802120460095B3
:1054800000F060F848B9334600224FF4C06120466E
:10549000009500F008F8002804D0206E40F02000AD
:1054A00020660320F8BD2DE9F8431D4617460E4639
:1054B00004464FF4C068DDF820903CE0464505D135
:1054C00027B9007B8DF800009DF80000681C32D0E1
:1054D0002DB1FCF7E5F9A0EB0900A8422BD3206819
:1054E000416821F0E00141606068B0F5827F0BD136
:1054F000A068B0F5004F02D0B0F5806F04D12068ED
:10550000016821F040010160A06AB0F5005F09D197
:105510002068016821F4005101602068016841F4AD
:1055200000510160012084F85D00002084F85C00D7
:105530000320BDE8F883206881683140B942BDD1BD
:105540000020F6E72DE9F0411D4617460E460446B9
:10555000DDF8188034E0681C32D02DB1FCF7A0F9DA
:10556000A0EB0800A8422BD32068416821F0E0019D
:1055700041606068B0F5827F0BD1A068B0F5004F44
:1055800002D0B0F5806F04D12068016821F040019D
:105590000160A06AB0F5005F09D12068016821F4BC
:1055A000005101602068016841F400510160012050
:1055B00084F85D00002084F85C000320BDE8F081E1
:1055C0002068806836EA000004D00020B842C2D1CA
:1055D0000020F3E70120F9E700B587B02048FDF788
:1055E000D6FE00283AD11E481E4907220160182124
:1055F000C1610021816041610161C0E90A121202AA
:10560000C26001624FF40072826141624FF48272A3
:1056100042601548826942F480528261826902F4D4
:1056200080520592426942F400324261406900F4BE
:1056300000300590E02000900220CDE90101032018
:1056400003900520049069464FF09040FCF75AF80B
:1056500007B003485DF804EBFDF79CBE07B000BD42
:10566000B4170020003001400010024001B582B0A4
:1056700000208DF804000948012301AA4068009029
:1056800002A90748FDF71AFF20B10548FDF768FE9B
:10569000FFF7A2FF9DF804000EBD000000010020EE
:1056A000B4170020FFF7D0FC002002F019FB002007
:1056B00002F022FB022002F0A0FF0E4802F0BEFB27
:1056C0000C49142214390C48FEF75AFC0B4D4FF4C8
:1056D00080640220FBF720FF21462846FCF7D6F81D
:1056E0000449A1F12800FEF7A7FF642002F01EFC88
:1056F000EFE70000D4020020D8040020001000488A
:1057000002F020BC30B59FB0032000904FF4A020E1
:105710000024CDE901040120049010200590022509
:105720000003CDE90750000109906846FDF750FBE2
:1057300008B1FD211DE00F20CDE919054FF480606F
:10574000CDE91B40012119A81D94FDF717FA10B1EE
:1057500040F20B110DE011480A904FF480000C94B8
:1057600018900D9411940AA8FDF7FCF820B14FF49D
:105770008B710BA001F094FAFDF7C2FA4FF47A7125
:10578000B0FBF1F0FDF7C5FF0420FDF7B6FF0022E6
:105790000F21501EFCF79EFB1FB030BD23000200FE
:1057A0002E2E2F5372632F6D61696E2E63000000E1
:1057B0001448016841F4700101601348016841F028
:1057C000010101604168114A114041600168104ABD
:1057D00011400160016821F480210160416821F4D9
:1057E000FE014160C16A21F00F01C162016B094AEB
:1057F00011400163002181600249C00380390860C3
:105800007047000088ED00E0001002400CC07FF8F7
:10581000FFFFF6FECCFC00FF0148FEF750B8000089
:10582000741700202DE9F0430268234B234D244ECA
:10583000244C4FF08049984207D0484505D0A842F3
:1058400003D0B04201D0A04203D122F070074A68D1
:105850003A431D4FDFF874C0DFF8748098420DD0D2
:1058600048450BD0A84209D0B04207D0A04205D08D
:10587000B84203D0604501D0404503D122F44075C1
:10588000CA682A434D6922F080022A4302608A686E
:10589000C2620A688262984207D0A04205D0B8422C
:1058A00003D0604501D0404501D109690163012160
:1058B0004161BDE8F0830000002C0140000400407D
:1058C0000008004000340140004001400044014015
:1058D0000048014010B50123046A8B409C430462D8
:1058E000036A8A401343036210BD00002DE9F043B0
:1058F000026A22F001020262056A436882691C4C56
:1059000025F0020522400C6822F0030214438A6845
:10591000194E2A43174D194FDFF864C0DFF8649021
:10592000A84207D0B04205D0B84203D0604501D0AC
:10593000484506D122F00808CA6842EA080222F067
:105940000402A84207D0B04205D0B84203D0604557
:1059500001D0484505D14D6923F440731D438B693F
:105960002B4343608461496841630262BDE8F08370
:105970008FFFFEFF002C0140003401400040014039
:105980000044014000480140F0B5026A22F01002D4
:105990000262056A42688369194C1B4E23400C68F9
:1059A00023F4407343EA042425F020038D6843EA7E
:1059B0000513144DA84201D0B04206D1CF6823F0A0
:1059C000800343EA071323F04003A8420AD0B04201
:1059D00008D00E4DA84205D00D4DA84202D00D4D65
:1059E000A84207D14D6922F4406242EA85028D69DE
:1059F00042EA850242608461496881630362F0BDC6
:105A0000FF8FFFFE002C01400034014000400140A8
:105A10000044014000480140F0B5026A22F480725F
:105A20000262056A4368C269194C1B4E22400C6829
:105A300022F00302144325F400728D6842EA052225
:105A4000144DA84201D0B04206D1CF6822F40062C2
:105A500042EA072222F48062A8420AD0B04208D06B
:105A60000E4DA84205D00E4DA84202D00D4DA842C1
:105A700007D14D6923F4405343EA05138D6943EA86
:105A800005134360C4614968C1630262F0BD000050
:105A90008FFFFEFF002C0140003401400040014018
:105AA000004401400048014030B5026A22F48052AF
:105AB0000262046A4268C369124D24F400542B4008
:105AC0000D6823F4407343EA05238D6844EA0534E6
:105AD0000D4DA8420BD00D4DA84208D00C4DA84248
